:020000021000EC
:10900000000001200993010031930100BD470200D7
:10901000DD47020037930100399301000000000092
:109020000000000000000000000000003B93010071
:109030003D930100000000003F93010041930100B7
:1090400043930100439301004393010043930100C4
:1090500043930100619A010043930100439301008F
:1090600043930100439301004393010043930100A4
:109070004393010043930100439301004393010094
:109080004393010043930100439301004393010084
:109090004393010043930100439301004393010074
:1090A000439301004393010043930100099E010093
:1090B0004393010043930100000000000000000002
:1090C0004393010043930100439301004393010044
:1090D000439301004393010043930100000000000B
:1090E0000000000000000000000000000000000080
:1090F0000000000000000000000000000000000070
:10910000000000000000000000000000000000005F
:10911000000000000000000000000000000000004F
:10912000000000000000000000000000000000003F
:10913000000000000000000000000000000000002F
:10914000000000000000000000000000000000001F
:10915000000000000000000000000000000000000F
:1091600000000000000000000000000000000000FF
:1091700000000000000000000000000000000000EF
:1091800000000000000000000000000000000000DF
:1091900000000000000000000000000000000000CF
:1091A00000000000000000000000000000000000BF
:1091B00000000000000000000000000000000000AF
:1091C000000000000000000000000000000000009F
:1091D000000000000000000000000000000000008F
:1091E000000000000000000000000000000000007F
:1091F000000000000000000000000000000000006F
:109200000348044B834202D0034B03B11847704715
:109210008801002088010020000000000548064B5E
:109220001B1AD90F01EBA301491002D0034B03B164
:1092300018477047880100208801002000000000C6
:1092400010B5064C237843B9FFF7DAFF044B13B18E
:109250000448AFF300800123237010BD8801002073
:109260000000000034EA020008B5054B1BB10549B7
:109270000548AFF30080BDE80840FFF7CFBF00BF4F
:10928000000000008C01002034EA0200A3F5803ABF
:10929000704700BF174B002B08BF134B9D46FFF7CD
:1092A000F5FF00218B460F461348144A121A11F09D
:1092B000FAFC0E4B002B00D098470D4B002B00D032
:1092C00098470020002104000D000D48002802D01E
:1092D0000C48AFF3008011F0EFFC2000290000F0F3
:1092E00001FE11F0A5FC00BF000008000000000016
:1092F000000000000000012088010020909E002056
:1093000000000000000000000649074A074B9B1AB6
:1093100003DD043BC858D050FBDC00F03BF8FFF7FE
:10932000B9FF000040EA0200800000208801002010
:10933000FEE7FEE7FEE7FEE7FEE7FEE7FEE7FEE705
:10934000FEE7FEE74FF08053D3F83001421C04BF24
:109350004FF0704393F8E00F831F58425841704715
:109360004FF0704393F8E02F062A08D1D3F8E80FA6
:1093700000F0F000A0F1300358425841704700203F
:1093800070470000024AD2F80034002BFBD070472F
:1093900000E0014010B5FFF7D5FF40B14FF080531A
:1093A0008F4AD3F82433C3F30423C2F84035FFF7C0
:1093B000D7FF10B18B4B8C4A5A67FFF7C3FF48B1F8
:1093C0004FF080534FF08042D3F84432C3F342331E
:1093D000C2F83C35FFF7C4FF30B1844AD2F8FC3004
:1093E00023F08073C2F8FC30FFF7ACFF40B14FF0C0
:1093F00080430022C3F80C21C3F81021C3F838259C
:10940000FFF7AEFF20B14FF080430322C3F8A02541
:10941000FFF7A6FF60B1764B0522C3F810260122A4
:10942000C3F888260022C3F818263F22C3F8142662
:109430004FF08053D3F83021511C09BF4FF07043D7
:10944000D3F8343193F8E02FD3F8E83F08BFC3F3E3
:109450000313062A49D1033B012B46D94FF0805212
:10946000644BD2F80414C3F82015D2F80814C3F8DA
:109470002415D2F80C14C3F82815D2F81014C3F828
:109480002C15D2F81414C3F83015D2F81814C3F8F8
:109490003415D2F81C14C3F84015D2F82014C3F8C0
:1094A0004415D2F82414C3F84815D2F82814C3F888
:1094B0004C15D2F82C14C3F85015D2F83014C3F858
:1094C0005415D2F83414C3F86015D2F83814C3F820
:1094D0006415D2F83C14C3F86815D2F84014C3F8E8
:1094E0006C15D2F84424C3F87025FFF72BFF48B160
:1094F0004FF080534FF08042D3F8583203F04F03BF
:10950000C2F8E43EFFF71EFF48B14FF08043D3F8A6
:109510000024D20744BF6FF00102C3F800244FF0CB
:109520008053D3F83021062A0BD1D3F83431033BD2
:10953000022B81BF304AD2F83C3743F48063C2F833
:109540003C372A4AD2F8883043F47003C2F8883096
:10955000BFF34F8FBFF36F8F4FF08053D3F830219D
:10956000062A0CD1D3F83431033B032B81BF4FF0D3
:109570001023D3F808224FF08043C3F858254FF04A
:109580001023D3F80022002A03DBD3F80432002B87
:1095900022DA1A4901234FF01020C1F804351524AE
:1095A000FFF7F0FEC0F80042FFF7ECFEC0F80442FF
:1095B000FFF7E8FE0023C1F80435FFF7E3FEBFF331
:1095C0004F8F0A490E4BCA6802F4E0621343CB6026
:1095D000BFF34F8F00BFFDE70A4B0B4A1A6010BD67
:1095E0000030014000C007400DF0ADBA00ED00E0D2
:1095F0000050004000C000400010004000E001406A
:109600000400FA05800000200090D003C02910B5A6
:1096100025D0B9B180290AD14378047882781B0219
:1096200043EA044313430F4A0330C2F898354378A2
:1096300002781B0243EA024382781343094A03304B
:10964000C2F894350368074A1BBAC2F89035D2F8BD
:10965000A03523F0C0030B43C2F8A03510BD402154
:10966000E5E700BF00500040044B0D22C3F804247E
:1096700001229A60024AC3F8042370470050004058
:1096800082000800034B4FF0FF32C3F80823012289
:109690005A6070470050004008B5FFF7F3FF084BD1
:1096A0002022C3F88020BFF34F8FBFF36F8F054890
:1096B000C3F8802100F044FB034B00221A7208BD5E
:1096C00000E100E084000020A4010020034BD3F857
:1096D0003C0410F0030018BF012070470050004008
:1096E000F0B5B0F5A07FA5B072D1FFF7EFFF04464B
:1096F0003B48002C70D183680133072B836067D906
:1097000004230093CDE90144364D039400F00CFB93
:10971000354B6C724FF48052C3F80825D3F80825F6
:10972000D3F89005D3F8A01511F0C0011FFA82FC00
:1097300050D08029D3F8944501BFD3F898358DF8DF
:1097400012301A0C8DF8102009BF1A0A04AA8DF8DD
:1097500011200DF11302230C1370230A537094701F
:10976000D31C020E1A70020C1F4C5A70020AD870D9
:109770009A700023D4F8A475D4F80463C4F8FC3FAD
:10978000D4F8FC3F0123C4F8FC3F04A8C4F808C582
:10979000FFF73CFFD4F8A43507F0600723F060031F
:1097A0003B43C4F8A4350323C4F80C35D4F8A035E2
:1097B00023F01F0343F00403C4F8A0354FF48F6374
:1097C000C4F80463C4F808336B680BB16846984763
:1097D00025B0F0BD04ABC4E700238360F8E700BF09
:1097E00084000020A4010020005000400288084BA3
:1097F0004168C3F81015C2F30802C3F81425054ADE
:10980000126802F48C62C3F804230122DA61704703
:1098100000500040A401002038B5036804460D46FE
:109820007BB3002011F096FA174BD3F80C211AB134
:10983000D3F80423120722D4012119612288606819
:10984000C3F81005C2F30802C3F814252268D20039
:10985000C2F30B0292B2C3F81C250C4AC3F80C5594
:109860009089C3F80805126802F01802C3F80423AF
:109870000024D960002011F075FA204638BD11246B
:10988000F8E70924F9E700BF00500040A4010020D8
:1098900000F1804000F5A040012303607047000004
:1098A00029280D4B11D1D3F8202412F0010F4FF0CD
:1098B000010214BF9A625A624FF48052C3F808251D
:1098C0004FF48F62C3F80823704700F1804000F521
:1098D000A04001220260EFE70050004008B5037885
:1098E000012B10D0022B1BD00BB1002008BD436808
:1098F000B3F5803F21D8124A4FF6FF718B4294BFD7
:10990000D360D160F1E70179032916D80D4AD2F866
:10991000A43523F0600343EA4113C2F8A435E4E719
:10992000037A042B07D00A2B0CBF8021402140680A
:10993000FFF76CFED9E70021F9E70720D6E700BF63
:10994000A4010020005000400A2930B52ED84FF461
:109950009263CB40DB0729D54FF080520429D2F81F
:109960005044D2F85434D2F8582404704FEA1425E5
:109970004FEA14448470DCB24570C47001D10020F9
:1099800030BD1D0A05710A294FEA13454FEA1363DA
:109990004571837105D1130AC271120C03724272B0
:1099A000EDE7882CEBD19923C370E8E70920E7E7BE
:1099B0002DE9FF41244D2C7A002C42D103C8234AC3
:1099C00085E803000323C2F80C35D2F8A03523F054
:1099D0001F0343F00403C2F8A0351D4B20224FF0B3
:1099E000C008C3F8802183F805831A60194F1A4B09
:1099F0001A4A02A93846CDE9023400F01FF904469C
:109A0000D8B93B68D3F8102501264FF4C861D2B20B
:109A1000334621FA02F200960146384600F0DDF99D
:109A2000072102A8FFF790FF4146044602A8FFF76E
:109A3000EDFD4FF480532E72EB60204604B0BDE87C
:109A4000F0810824F9E700BFA40100200050004085
:109A500000E100E08400002004000006E19601001F
:109A60007FB5734BD3F80421EAB1D3F804239107EF
:109A700019D50022C3F80421BFF34F8F6D4C637AD0
:109A800003F0FF067BB96C4D284600F087F92846A5
:109A900000F03CF901236372022300936368AE6017
:109AA0000BB168469847624BD3F81821A2B3D3F89C
:109AB0000423520630D50021C3F81811BFF34F8F8D
:109AC000402201910092D3F810250392D3F8242567
:109AD000C2F30B02103AC2F3CC020292D3F828214F
:109AE0007AB1D3F8042356050BD5D3F80C2402F031
:109AF0000D020192C3F82811BFF34F8F0D22C3F856
:109B00000C244C4B5B680BB168469847484B0022CD
:109B1000C3F80C21BFF34F8F454BD3F81021AAB1E6
:109B2000D3F80423D50611D50022C3F81021BFF3C2
:109B30004F8FCDE901220392102200921822C3F820
:109B400008233C4B5B680BB168469847384BD3F809
:109B50004C215AB3D3F80423140327D50022C3F8A9
:109B60004C21BFF34F8FC3F81821BFF34F8FC3F8B9
:109B70002821BFF34F8FC3F80C21BFF34F8FC3F8D9
:109B80001021BFF34F8F2B498889C3F808050D209A
:109B9000C3F80C04C3F804044FF4002300934B688B
:109BA0000392CDE901220BB168469847204BD3F8C8
:109BB0001C21F2B1D3F8042310061AD50022D3F8E1
:109BC0000414C3F81C21BFF34F8FCDE90122039287
:109BD000C9074FF08002009207D50122C3F8042480
:109BE000144B5B680BB168469847114B0D22C3F8C4
:109BF00004240F4BD3F80C21BAB1D3F80423120775
:109C000013D50022C3F80C21BFF34F8F094A5268C5
:109C10005AB108210091D3F810150291D3F81C35E0
:109C2000C3F3C80301936846904704B070BD00BFFA
:109C300000500040A401002084000020F7B5067900
:109C40002F4D0C237343EF1814463A7A002A54D14F
:109C5000EC504B687B60944647790368D4B2A742C6
:109C600041D843F30733CA78002BAEBF03F16043FA
:109C700003F00F03234C4FEA4212A8BF03F56143E0
:109C8000D2B2B4BFE25483F80023036843F307332E
:109C9000002B08DB01225C0903F01F0302FA03F327
:109CA000194A42F8243002684C78D2F8043564F33B
:109CB0000103C2F8043502688C78D2F8083564F3E1
:109CC0000103C2F8083502680978D2F8103561F34B
:109CD0000303C2F810350C2303FB065501232B7236
:109CE000002003B0F0BDA40004F5A074013243F8D5
:109CF00004C01B590193019BAEE70820F1E700BFA8
:109D0000B401002014ED00E000E100E0036801224E
:109D10001A600279034B0C2101FB023302221A72F2
:109D2000704700BFB4010020036801221A61017965
:109D3000024B0C2000FB01331A727047B401002063
:109D400038B5036843F30733002B04460DDB5A098B
:109D5000012103F01F03994002F120030D4A42F84C
:109D60002310BFF34F8FBFF36F8F23680025D3F805
:109D70000022C3F8005223684FF0FF32C3F80823D3
:109D80002046FFF7D1FF2279034B0C2101FB023360
:109D90001D7238BD00E100E0B4010020036801221B
:109DA000DA60704773B54FF4803405688C408BB12E
:109DB0008B0003F5A0730026EE50EB580193019B36
:109DC0000368C3F80443036801F5A87143F8212030
:109DD00002B070BDC5F80843F5E7F0B4076840F27B
:109DE0000116D7F800528E4025EA0605C7F8005242
:109DF0000468D4F800522B43C4F800329DF81030A8
:109E0000F0BCFFF7CFBF00002DE9F341104C114F1C
:109E1000114E00254FF48038236883B1D7F80433FE
:109E200008FA05F21A420AD000232360236801933E
:109E300004F5A040019B80B2D6E900319847013576
:109E4000062D04F10404E7D102B0BDE8F08100BFA3
:109E500040B1014000B00140B401002010B50D4CEC
:109E6000207809F08FFF607809F07CFF207C0038B3
:109E700018BF012009F095FFE0780FF08DFAE07A25
:109E8000003818BF01200FF093FAA089BDE81040F8
:109E900009F08ABD3E54002010B5044605F046FB8B
:109EA00008B105F053FC214604484FF4487206F00F
:109EB000FDFDBDE810400AF015BB00BF8CB90200E3
:109EC00010B5044605F032FB08B105F03FFC224610
:109ED0000348002106F0EAFDBDE810400AF034BB5B
:109EE00094B902002DE9F3470AF086FBB34D0AF05E
:109EF00067FD09F023FE0AF0DFF905F023FB09F006
:109F000075FF0AF059F80AF065F8FFF7A7FF00247B
:109F100045F0010509F046FE002009F089FE80B3F6
:109F20000AF04AF8A64A122122200AF0F7FEA54AB2
:109F30001E2116200AF00AFF01260023CDE9003673
:109F40006422082328210E200AF062FECDE9006673
:109F500004232A2110201322B4FBF2F20AF058FE47
:109F60000AF038F832264FF47A40A847013EFAD179
:109F70006034B4F5F06FCDD14FF4C870FFF7A0FF97
:109F800004E0022009F054FE0028C9D106F08CFD3F
:109F90008D480AF019F806F00DFD00200AF014F8BB
:109FA0000AF016FB28B147F2305008F0C1FE0AF063
:109FB000ABFB864D09F0E6FC09F000FD0AF0C2F8A3
:109FC0000FF080F904F076F9FFF748FF04F096F9F6
:109FD0000CF0A8FB0EF0D6FA2B7F1BB901F0F0F8BD
:109FE00000F088FA0AF05AFA00F0BAF96B7F43B130
:109FF000774A12789A4204D9764A52F8230000F040
:10A00000F1F97548754E764F00F028FA09F0CAFD4F
:10A010000AF040FD3378044673B109F015FE58B1DB
:10A0200033781BB10020307009F0BFFE09F066FEE6
:10A0300000F060FA00F050FA012009F027FE002835
:10A0400000F0958000F056FA634800F007FA00F03F
:10A05000F9F9DFF8A481C36820469847204600F04C
:10A06000D9F90AF031FAD8F80030E31AB3F57A7F5B
:10A0700007D34FF47A70B4FBF0F00AF06DFAC8F829
:10A080000040697C00297CD1564B1A782AB119709E
:10A09000084609F08FFE00F01FFADFF86081D8F85B
:10A0A000003041F28832E31A934221D909F086FC4C
:10A0B0004D4AC8F80040137A9279002A77D0002BD5
:10A0C00077D0DFF830A19AF800308BB906F020FD88
:10A0D0003A4B40F2DC5843F001094FF47A40C8474C
:10A0E000B8F10108F9D101238AF8003000F0F4F941
:10A0F0000FF082FC88BB0EF06FFF70BB04F0AAFF6C
:10A1000058BB0DF023FA40BB00F058FA241ABC42A9
:10A1100088BF002400F058FA40B96B7A33B14FF48D
:10A120007A725343A34201D200F054FAAB7C53B18C
:10A130004EF6602253439C4205D933781BB9012067
:10A14000307009F032FE2B7A3BB14EF66022534359
:10A150009C4202D92548FFF79FFE00F073F9037F68
:10A16000002B7FF453AF14200AF0BEFC4EE709F039
:10A170008DFD00283FF46BAF00F0BCF900F098F9BA
:10A1800065E71B4A13684EF65F21E31A8B4284D9B8
:10A19000144B14601978013101F003001870013874
:10A1A0000128C1F340018CBF0020012071E7002B82
:10A1B0009ED1104B00221A709AE700BFA0D4020073
:10A1C00094B902009FB90200052D02003E54002000
:10A1D00084DC0200B8DC02009CD80200D001002020
:10A1E000005C2605C4010020CE8B0020B9B9020016
:10A1F000C0010020C5010020CC010020C8010020C2
:10A2000010B5064C064A2378013B52F823301B69EF
:10A2100003B198472378013B237010BDE50100206E
:10A22000E801002070B5174D04462B78012B25D886
:10A23000154E3378A3420CD0144D2B681B6903B123
:10A240009847134B347053F824302B609B6803B14C
:10A250009847104B53F824200F4B1A600AF01AFC51
:10A260000E4B00F52F7018600D4809F0ADFE0D4B38
:10A2700001221A70BDE8704009F040BDFFF7C0FF31
:10A28000D3E700BFE5010020E4010020E801002041
:10A29000B8DC020088DC0200E0010020DC010020C4
:10A2A000A9A20100900000202DE9F74F294B1B685F
:10A2B0001B79013BDBB2042B42D8274A52F82360BA
:10A2C000002E3FD14FF00D091625DFF89080D8F809
:10A2D00000000AF031FD044600F1080736B13046AF
:10A2E0000AF058FD8442B8BF00F10807C7F18004A6
:10A2F00004EBD47464104FF0010B4FF0000A2046B9
:10A300004B463A462946CDE900BA0AF081FC294677
:10A310002046CDE900AB4B463A460AF079FC0434BE
:10A32000E91C9EB1324620460AF010FDD8F8002004
:10A3300005F10901204603B0BDE8F04F0AF0EEBC7C
:10A340000026BFE74FF012091425BEE7D8F8002019
:10A35000F0E700BFE8010020A8D40200E0010020DF
:10A360000C4B10B51C680AF095FB0B4B18600B4B9F
:10A3700018600B4B00221A700A4B0B4A1C60012319
:10A3800013700A4A1370A36813B1BDE81040184750
:10A3900010BD00BFB8DC0200D8010020D4010020AD
:10A3A000E4010020E8010020E501002090000020E9
:10A3B0000A4B0B4A30B51C780023D9B28C4205D821
:10A3C0004FF0FF33581C18BF012030BD52F8045B1A
:10A3D000A84203F10101F5D00B46EEE784DC020050
:10A3E000B8DC0200094B0A4930B402461C7800234D
:10A3F000D8B2844201D830BC704751F8045BAA42FD
:10A4000003F10103F4D130BCFFF70CBF84DC020080
:10A41000B8DC020008B5084B1A685AB1074A12683E
:10A42000801A002806DB0020186009F0CDFD044BDF
:10A4300001221A7008BD00BFE0010020DC010020ED
:10A4400090000020034B044A1B78013B52F8230084
:10A45000704700BFE5010020E801002038B5044640
:10A46000F8B1C368EBB1FFF7A3FF20B12046BDE808
:10A470003840FFF7B7BF0B4D2B78052B01D9FFF7FD
:10A48000BFFE2B785A1C2A70074A42F82340A36863
:10A4900003B19847054B01221A70BDE8384009F016
:10A4A0002DBC38BDE5010020E8010020900000200F
:10A4B00008B5074B1B78012B08D9FFF7A1FE054B08
:10A4C00001221A70BDE8084009F018BC08BD00BFA1
:10A4D000E501002090000020014B01221A70704716
:10A4E00090000020024B002218781A70704700BFBD
:10A4F0009000002010B50AF0CDFA064C064B18600B
:10A5000023782BB1054B587809F02CFC00232370DD
:10A5100010BD00BFD1010020D40100203E54002016
:10A5200010B5002009F0A6FB044608B1FFF7E2FFD2
:10A53000204610BD08B5094B1B78012B4FF00200D7
:10A5400008D809F097FB08B9002008BDFFF7D2FF33
:10A550000120FAE709F0A6FBF5E700BFE5010020BE
:10A5600010B5012009F086FB044608B1FFF7C2FFD1
:10A57000204610BD10B5012009F088FB044608B143
:10A58000FFF7B8FF204610BD38B5002009F066FB84
:10A590000546012009F062FB0446022009F05EFB3B
:10A5A0000DB904B910B1FFF7A5FF012038BD0000B7
:10A5B000014B1868704700BFD8010020014B186894
:10A5C000704700BFD4010020014B1878704700BFCE
:10A5D000D101002008B5054B58780623B0FBF3F0F5
:10A5E00009F0C0FB024B01221A7008BD3E54002046
:10A5F000D10100200138C0B202289ABF024B53F8A3
:10A6000020000248704700BFC0D40200A5BB020072
:10A610000138C0B202289ABF014B185C0020704775
:10A62000BCD4020010B504462AB3FFF7F1FF8842FC
:10A6300021D9022C0ED0032C14D0012C1BD101EBFC
:10A64000810303F66C1313800A2393700131D170D8
:10A65000012010BD094B33F8113013800123937092
:10A660002531F4E701EB810303F665131380012321
:10A6700093700B31EBE70020EBE700BFD0D4020072
:10A6800040F6621398420DD040F67A13984212D0E9
:10A69000B0F51B6F11D0A0F6651293B24B2B0ED9FB
:10A6A000254870470023254A4221117033215170FB
:10A6B000373393701CE00123F5E70223F3E7204BC7
:10A6C0005A43B2F1333F17D81C4A5A23137032232E
:10A6D000B0FBF3F3013353700523B0FBF3F00A230F
:10A6E000A0F5EB70B0FBF3F103FB1100303090707C
:10A6F0000023D37011487047A0F66C1082B23C2A38
:10A70000CED84343B3F1333FCAD805230B4AB0FB3D
:10A71000F3F0431C5721092B117004DC3130002366
:10A7200050709370E6E7312151700A21B3FBF1F0CC
:10A7300001FB10333033BCE747CD0200004200205C
:10A74000CDCCCCCC2DE9F34701AAFFF76BFF18B9AC
:10A75000002002B0BDE8F087BDF804709DF8063017
:10A76000DFF85090A7EB03084FF0000A1F441FFAD0
:10A7700088F8BFB2564654460EF032FE5FFA8AF5AC
:10A78000A84205D8002EE3D0B4FBF6F0C0B2E0E753
:10A7900028460EF02BFE804508D8874206D305EBED
:10A7A00045054D440136AB78B6B21C440AF1010AA6
:10A7B000E2E700BF379C00202DE9F843DFF8348042
:10A7C000054600264FF6FF74012718F8019B09F192
:10A7D000FF31C9B20120FFF7B5FF0136A0423CBFEF
:10A7E00004464F46032EF0D10DB1E4432C70384699
:10A7F000BDE8F883CCD4020000EB51038B4210B5C6
:10A80000024611D3B3FBF1F0642400FB01F301EB2A
:10A810004101B1FBF4F196315418A34204D80B4422
:10A820009A4288BF002010BD0020FCE70123F0B54C
:10A83000D36200244FF0FF3326461D46E7B2B942EB
:10A8400006D8691C1EBF01335B1B82F82F30F0BD98
:10A85000075D97B192F82D30013382F82D3026B97B
:10A8600092F82E30013382F82E302346B5F1FF3FA7
:10A8700008BF254601260134E0E73E46FBE700001D
:10A88000F0B5868902683EB9B2F5FA6F04D209B113
:10A890005A230B700020F0BD814C837BA2420FD95C
:10A8A000052B0AD990F8272090F828309A4204D82E
:10A8B00090F82930062B40F2E380022055235AE01D
:10A8C000447C74B1774CA2420BD9052B20D9C37BB1
:10A8D000362B4FF0050011D85A23072E40F2CD80B9
:10A8E00049E00B2B14D94368A3F5B033B3F5C04F3F
:10A8F00006D86D4B9A4240F2C88003204B23ECE708
:10A900004CF250339A424FF00300F7D83723E4E774
:10A91000032B34D8448A032C33D9047F4A2C30D9F2
:10A920008469A4F56A35A5F5C07542F6E067BD42B5
:10A930000ED9A4F5EA25A5F5407545F6C057BD42E8
:10A9400006D9A4F5EA34C03C41F27075AC4218D87F
:10A9500044893C3CA4B2B4F56B7F12D842F20F7428
:10A96000A2420ED8428D40F699139A424FF00A0047
:10A9700040F089804B2300298DD00B708BE7042B8E
:10A9800053D14CF24F34A2424FD84489651E40F651
:10A99000C317ADB2BD42478A2DD8032F2BD990F8EB
:10A9A0002C5045B390F82EC0BCF1020F23D9056A94
:10A9B00090F81CE08DB190F82450452D0DD990F8F9
:10A9C0002650012D09D990F82550012D05D9BEF149
:10A9D0004A0F05D80C203C237FE7BEF14A0F0AD965
:10A9E0008569DFF8C8E0A5F51C45403D754502D8EE
:10A9F000BCF1050F4CD80B2F17D9057D3B2D14D971
:10AA00003C3CA4B240F67C37BC420ED890F82C40B7
:10AA10005CB190F82D400F2C07D990F82E40032CF4
:10AA200003D990F82F40272C13D84489007CB0B963
:10AA3000013CB4F5C77F01D8032B2CD944F61F6025
:10AA4000824203D8032E16D9042B26D901202823AD
:10AA500043E74F2D4FF00900BDD946233DE7A4F150
:10AA6000960080B240F23A75A842E1D8042BDFD8B4
:10AA70000620412331E701202823193BDBB27AE786
:10AA80000B20462377E7372375E70420552324E777
:10AA90000C202D2321E7072038E70820F9E700BF25
:10AAA000A0BB0D00400D03003F0D0300E0040700B4
:10AAB0000C289ABF024B53F820000248704700BF91
:10AAC000D8D40200F7B90200F8B507460EF088FCAA
:10AAD00000240546E6B2B54201D80020F8BD304654
:10AAE0000EF084FCB84204F1010224D11449154F40
:10AAF000631E04EB44040C442146581C09D011F891
:10AB0000010C0F2819D8F85C11F803CC07388445DC
:10AB100013DBF31A0B49D8B29542DFDD63790F2BB3
:10AB200004D88B5CE678073B9E42D7DA431CD8B248
:10AB300001320334F0E71446CCE7013B0339DCE78C
:10AB4000379C0020AA9B00202DE9F04F8BB0CDE967
:10AB50000121149C0393054630220021204610F069
:10AB6000A2F8039B65854BB11A683AB15968B2489F
:10AB70000023A1FB000110F067FD2060019BA38171
:10AB8000002B40F0CA810023638164232381019B51
:10AB9000032B00F2F4810023039A6360002A00F083
:10ABA0005382527BE27340F66212954200F04E826D
:10ABB00040F67A12954200F04982A5F51B614A429F
:10ABC0004A4122748BB103F5C86144F61F62914279
:10ABD00040F23E8245F26042934240F2428244F2A9
:10ABE000506293428CBF0023012363742846FFF711
:10ABF0006BFFA0730298002319461E461D461A4695
:10AC000000F1040C019F98B2874200F22C828B4B1A
:10AC1000DFF834C26282002004931E4602460346D7
:10AC200040F2712781B28D4200F23E8223B164214D
:10AC30004A43B2FBF3F2D3B22375022D4FF0000367
:10AC400023777CD9DFF8F4819B46184658F8042B0B
:10AC50007B4EA2F59C412039B14231D8C821B2FBCC
:10AC6000F1F6B6F5967F38BF4FF49676510006910F
:10AC7000710001EB42010791DDF810900021059170
:10AC800002EB060A59F804EB06EB0E0C624501D8FC
:10AC9000D64506D9069FB444674504D8079FBE45EC
:10ACA00001D8013189B2059F0137BFB2AF42059784
:10ACB000E8D1594500F20C8202D1934228BF1346D5
:10ACC000013080B2A84201D04028BFD1BBF1020FB1
:10ACD00040F21482C827B3FBF7F7B7F5967F38BF69
:10ACE0004FF496775A0011467A0002EB430ADFF8D8
:10ACF0004C81002210460592944607EB030958F850
:10AD0000046B07EB060E734502D84E4540F2E38113
:10AD1000BE44714540F2E7810CF1010C1FFA8CFC36
:10AD2000AC45ECD1642606FB0BFBBBFBF5FB84F8C2
:10AD30001CB022B10023059910F086FC03460026C2
:10AD4000022DA361A68484F8266040F2D9814623AF
:10AD50006B430693049B03EB85030793374B3746FE
:10AD6000B04653F8042B05924FF0010A0599B1FB48
:10AD7000FAF1B1F5FA6F27D346F2A81291421ED824
:10AD8000B9421CD9DDF810B04FF000095BF8040B94
:10AD9000CDE90813FFF730FDDDE908134FF0640C2F
:10ADA00018B109F101091FFA89F907988345EDD116
:10ADB000069A0CFB09F0904224BF4E460F460AF15A
:10ADC000010ABAF1410FD1D108F101081FFA88F840
:10ADD000A84502D0B8F1100FC3D1002F5DD04FF0BD
:10ADE00000081848822200210FF05DFFC246C346CA
:10ADF00043460593049B53F8049B04933946484605
:10AE0000FFF7FAFC059B0F4A68B119EB0A094BF1F1
:10AE1000000B4028804428BF4020CA4632F810105A
:10AE2000013122F8101001339BB2AB42E1D1054A47
:10AE3000002101230AE000BF40420F0088430020A8
:10AE400020F40E000642002090D0030032F8020FDA
:10AE500078B194F82600013084F826001088014467
:10AE600094F8250089B220B9B6EB410F38BF84F8B9
:10AE7000253001339BB2412BE8D164235E43B6FBFE
:10AE8000F5F684F82460B8F1000F06D0424600239E
:10AE90005046594610F0D8FB0746029927620D46E6
:10AEA000012200234FF6FF770198904200F22A8199
:10AEB000FF2B28BFFF2384F82730029B002203EBDF
:10AEC000C003FF208B4240F02F81904298BF121A9E
:10AED000039B94BFD2B2FF2284F82920002B00F0FC
:10AEE0002F811B68974A03F5F4334833934240F2AD
:10AEF0002781954AB3FBF2F3013BDBB284F828309B
:10AF000063683BB9237F4A2B81BFA2696260C3F1AA
:10AF1000640323810BB0BDE8F08F80228B480021B1
:10AF20000FF0C1FE029B894800221E1D322736F811
:10AF30003230B3F5486F2CBF3F23B3FBF7F330F843
:10AF40001310013120F813100132019993B2994284
:10AF5000EDD8480800237D491A4631F8026B324487
:10AF600092B2904207D203EB830303EB83035B00AF
:10AF700019339BB208E60133402BEED103E6802261
:10AF8000734800210FF08FFE029B71480122A3F14C
:10AF900008074FF4FA66029B57F8321053F8323024
:10AFA0005B1AB3FBF6F3591E3E299EBF30F813100F
:10AFB000013120F813100132019993B29942EAD875
:10AFC000002663490123324631F8020F904288BFC0
:10AFD0009EB203F1010388BF0246402BF4D1002E3C
:10AFE0003FF4D9AD022A7FF6D6AD019BB3EB820FB9
:10AFF0003FF7D1AD4FF4FA635E4306EB030800233D
:10B000004FF0010C9E46029957F83C0051F83C1055
:10B01000091A8E4203D8884584BF8E4401330198B3
:10B020000CF1010C1FFA8CF18842ECD8002B3FF494
:10B03000B2ADBEFBF3F364214A43411EB2FBF1F211
:10B04000C2F164022281A7E57F22ABE50122B8E5C7
:10B0500003F2355144F21A1291423FF6C0AD00237B
:10B06000C3E50123C1E53CF83370272F1AD90298B4
:10B0700050F8330007447AB1884202D3411AC729F5
:10B080000DD9FF2D08D8B04206D9A0EB060E314EDF
:10B09000691C46F825E08DB2013292B206460133B2
:10B0A0003946AFE50F46FAE756F8041B61450DD85F
:10B0B000B1FBF7FE07FB1E112939B1F5087F03F13B
:10B0C000010328BF01329BB228BF92B20130A9E52B
:10B0D0008B461346F4E536183046059E46F10006C9
:10B0E0000596013218E656453FF616AE361830463C
:10B0F000059E46F10006059602320DE600231EE687
:10B100003746CAE6AE88BE420AD028683044AE68E8
:10B11000B04205D2361AB6F57A7F84BF01339BB2AE
:10B12000013292B20835BFE68D88C72D06D98D79D8
:10B13000A84228BF2846AA4238BF2A460831C1E69D
:10B140000023DBE61FA1070090D003000843002086
:10B15000884200208843002073B5089C069E251D68
:10B160000095FFF7F1FC2EB19DF81C102A463046E1
:10B17000FFF75CFB611C2846FFF782FB207002B0E2
:10B1800070BD000070B504460B4D0EF029F90B4957
:10B190000023DAB2904200D870BD03EB430211F8ED
:10B1A000016BAA5C0B32B24204DAE25CFF2A1CBFDC
:10B1B0000132E2540133ECE7379C0020AA9B0020C7
:10B1C000F7B5274E002408F0F7FE264805F0E4FB0B
:10B1D00037460C2557F8042B13781BB1294602205B
:10B1E00009F0B4FD08353C2DF4D100250127EBB260
:10B1F0001A1B5342534105EB85000093019702232C
:10B2000003223C213A30013509F002FD032DEED135
:10B21000154A3C21022009F099FD08F0DBFE08F0F8
:10B22000C1FC08F011FDB8B108F00EFD78B9013489
:10B23000E4B208F063FD032C06F11806C3D10B4BF2
:10B2400001221A7703B0BDE8F04004F07FBA08F09D
:10B25000A9FC09F039F9E7E709F036F9DFE700BFA3
:10B260002CD5020070BA020076BA02003E540020CB
:10B2700030B50139451E012311F8014F24B9013BB6
:10B28000DBB20022C25430BD05F8014F5C1CE4B2B1
:10B29000A242F6D02346EFE710B50CF09BF809F078
:10B2A0002FF80E4B0E4C1B78A3770E4B0E491B78D4
:10B2B000E3770E4B04F121001B7884F820300FF067
:10B2C0001FFD38B10849292204F12100FFF7D0FF02
:10B2D00004F032F9BDE8104004F038BAB447002059
:10B2E0003E540020B347002089470020B247002089
:10B2F000044B054905481B78054A097800780CF08D
:10B300007FB800BFB2470020B3470020B4470020F9
:10B3100089470020134A1449144808B500231370C4
:10B32000134A1370134A13702822FFF7A1FF124A21
:10B330001249937F032B28BF00230B70D17F92F813
:10B340002020481E414241410D48003A01700D49FC
:10B3500018BF01220A701BB1BDE80840FFF7C8BF43
:10B3600008BD00BFB54700205F540020894700207A
:10B37000B1470020884700203E540020B4470020F9
:10B38000B3470020B24700202DE9F047B44C2378A2
:10B3900094B0002B00F01281FFF7C2F838B1B14A27
:10B3A00013780BB1013BDBB21370FFF795F8FFF791
:10B3B000C1F838B1AB4A1378252B9CBF0133137009
:10B3C000FFF78AF8FFF7CCF8B0B1A64BA64819787A
:10B3D000A64A455C0023164612F8017BBD4203F1E4
:10B3E000010340F0E6802A22B3FBF2F502FB15339D
:10B3F000F35C4354FFF770F8FFF7BCF828B1002363
:10B400002370FFF775FFFFF767F808A80CF086F8C0
:10B410009DF82E0030B109F03DFBFA23B0FBF3F0AC
:10B4200000F0010008F05CFFFFF75CF8002800F076
:10B43000BD800EA80CF072F808F0BEFD8C4805F037
:10B44000ABFA05F0C5F98B4B1A78012A00F0408160
:10B45000894B8A49022A08BF0B460493884B894AC4
:10B460001978894B894EDFF85482012908BF1346A9
:10B470000593874B874A1978874B002918BF1346D5
:10B480000693864B07930A2500240DF1100956F800
:10B49000042B2946022009F059FC032C5FFA84FA98
:10B4A00040F01881704A2221282009F04FFC98F8BA
:10B4B0000030534505D108238022691E002009F081
:10B4C000D7FB0134042C05F10805E0D12B227F21A4
:10B4D000002009F08BFB724A2E21022009F036FC75
:10B4E0000DF146050E24002615F8013F8DF8026087
:10B4F0001A099F2B03F00F0394BF30323732092B08
:10B5000094BF303337338DF8002020466A462E2111
:10B510000B348DF8013009F019FC5B2CE4D1614B40
:10B520009DF846206049002A18BF19460A460220A5
:10B53000222109F00BFC0E9901A809F033FC01AAA5
:10B540002221402009F002FC01A809F023FC574AFF
:10B550002221413009F0FAFB0F9901A809F022FCE1
:10B5600001AA2A21022009F0F1FB01A809F012FC2E
:10B570004F4A2A21033009F0E9FBBDF8441001A825
:10B5800009F010FC01AA2A21402009F0DFFB01A8E4
:10B5900009F000FC474A2A21413009F0D7FB464A0E
:10B5A0003A21022009F0D2FB08F014FD14B0BDE8E6
:10B5B000F0872A2B7FF410AF41231AE7FEF7B0FF84
:10B5C000B8B1FEF7ADFF3D4B1B78002814BF4FF01C
:10B5D000FF320122012B31D1294B19780A4402F0A4
:10B5E00001021A70234B1B78002B36D1FEF774FF33
:10B5F00003E0FEF79FFF0028E3D1FEF7B1FF78B12B
:10B600002E4A1378032B09BF012301332370154BF6
:10B610000BBF002203F003031A701370FEF75CFFE8
:10B62000FEF7A8FF00283FF4F0AE0BF085FF24489A
:10B630004FF41672002105F039FAE6E6022B41D0EC
:10B64000002BD3D10B490B78033313440322B3FBF4
:10B65000F2F202EB42029B1A0B70FFF749FEC5E7BC
:10B66000B14700208847002089470020A4D5020068
:10B67000DEB90200B4470020A5BB02001ACF0200C9
:10B68000B34700207EBB020083BB020074D50200DA
:10B69000B247002087BB02008EBB0200B8BB02008D
:10B6A0006EBD020095BB02009FBB0200BFBB020043
:10B6B000C4BB0200CABB0200D2BB0200B5470020D7
:10B6C000A9BB0200084A137883F00103137089E7CD
:10B6D000064BC2E659F82470384609F05BFB3A463F
:10B6E0002946C0F17E00E0E6B247002076BB0200AA
:10B6F00010B5084C08F004FE23782BB1064BD8781F
:10B700000DF04AFE002323700DF0DCFDBDE8104073
:10B7100002F0D0BD004900203E5400202DE9F04F3A
:10B720005E4D2B78022BC3B004464ED15C4A1368A1
:10B73000C31AB3F5FA6F2ADB5A4E106018235A4A1F
:10B7400000964FF4967140F692100DF035FF574B6E
:10B75000574A93F832300192002B2DAA01460092ED
:10B7600008BF6423504832460CF028F968B1514AAA
:10B7700051499DF9B43013700A78504E0F2A19D8E8
:10B7800023EAE373501CB3540870FEF7A5FE4C4A3D
:10B790001378002B00F0AA804A490B68002B40F078
:10B7A0009B800C607D23B4FBF3F000F0010008F0F7
:10B7B00097FD9BE00F22711C30460FF05BFA9DF95C
:10B7C000B43023EAE373F373DFE70DF033FE0DF0DB
:10B7D00007FE542828BF54203B4BDFF8D0C0C0B22E
:10B7E00003A918AE2DAF00225FFA82FE704503F167
:10B7F000030344D8354E2DAB306818AA03A90BF0CB
:10B80000C1FE306890F85031002BC0D10BF048FFDA
:10B8100030682F4900F1A70200F1FB0792F855307C
:10B8200012F801CFA3EB0C0383F30503DB0097426F
:10B8300001F8013BF2D195F80090B9F1010FA4D1C4
:10B84000244B1B78002BA0D00CF07EF8DFF870B0F2
:10B850001C4F80464FF0000A5FFA8AF1884594D960
:10B8600030680CF075F8C37933B18378092B82BF47
:10B8700000238BF800903B600AF1010AECE713F813
:10B8800001EC01F801EB13F803EC06F801EB1CF8EE
:10B8900001EB07F801EB0132A6E700BF03490020E6
:10B8A000C0470020D8470020E8470020AA9B00207E
:10B8B00094000020D5470020C4470020C547002041
:10B8C000BC470020B8470020379C002004490020D6
:10B8D000A848002002490020E31A40F6B8318B4204
:10B8E0007FF760AF0023137008F00AFDFEF738FE03
:10B8F000E0B12C7803230134B4FBF3F303EB4303EF
:10B90000E41A012C2C7040F09080694B18680CF000
:10B910002BF8684B684969481C704FF4617205F058
:10B92000C5F8674B00221A70FEF7D6FD022008F01A
:10B93000ADF9A0B12E7896B9624CFEF7DBFD237805
:10B94000002B7BD04FF4166040F6B31126700DF03B
:10B950006FFC5D4BD8780DF01FFDFEF7BDFDFEF7C7
:10B96000DFFD90B12B78022B0FD0514B18680BF0F4
:10B97000EBFF40B1524A13780344013BB3FBF0F1B3
:10B9800000FB11331370FEF7A7FDFEF7D3FD88B15E
:10B990002B78022B0ED0464B18680BF0D5FF38B130
:10B9A000474A13780133B3FBF0F100FB11331370F6
:10B9B000FEF792FDFEF796FD002833D024220021E9
:10B9C0002DA80FF070F92B788DF8B430394B1B7817
:10B9D0008DF8B5303D4B2E9354238DF8BC30384B49
:10B9E0001B788DF8BD30324B1B683093384B1B7879
:10B9F0008DF8C430374B1B683293374B3393374B3A
:10BA00001B788DF8D0302F4B1B788DF8D130344B0C
:10BA10001B88ADF8D230334B2DA81B88ADF8D4303D
:10BA200000F060FB43B0BDE8F08F022C7FF479AFEB
:10BA30002A4A002313702C4A136072E71C4E3068A8
:10BA40000BF082FF1E4B1978814288D230680BF0D0
:10BA50007FFF8379022B82D1037901885B0803F58C
:10BA600016629142C8BFC81A194489B240F6B3138E
:10BA7000CCBF80B24FF41660994228BF1946194BCB
:10BA8000174A1980012323700F4B1080DC783F2C5C
:10BA90009ABFA400E4B2FF240DF0CAFB20460DF0CB
:10BAA0007BFC124912484FF4487204F0FFFF54E740
:10BAB000044900200249002001BC020013BC02001E
:10BAC00001490020004900203E540020A8480020E1
:10BAD000D547002094000020C5470020C44700201F
:10BAE000FE480020FC480020C04700201EBC020089
:10BAF0002DBC020008B5114B186808B91048186031
:10BB00000BF039FD0F4A002313700F4A13700F4AD0
:10BB100013700F4A13700F4A13600F4A13700F4AC5
:10BB200013700DF0CFFB40F6B3114FF416600DF01B
:10BB30007FFBBDE8084008F0E3BB00BF04490020DC
:10BB40000002002003490020024900200149002092
:10BB5000C4470020C0470020BC4700200049002007
:10BB600008B5074B42791B789A4206D105490FF078
:10BB700071F8B0FA80F0400908BD0020FCE700BF72
:10BB800081490020824900202DE9F0470026DFF896
:10BB90002481DFF8249186B035460CF0B1FFF4B271
:10BBA000A04206D815B1394B01221A7006B0BDE883
:10BBB000F08720460CF082FF0446002850D0836DA9
:10BBC000D8F800209B1A002B4ADD99F80030002B92
:10BBD00042D12F49A26D0B78C8F8002001330B70B9
:10BBE0002C4B2D4D1A602D4BB4F856201A802C4B3F
:10BBF00094F854201A8004F10907A27995F90000FD
:10BC000039460BF095FF95F9002082420BD0287041
:10BC10000BF046FF30B395F900000BF041FF0146F1
:10BC200020480CF089FA95F90000A279002827DB5A
:10BC30006B4639460BF0FAFFB0B11B4ABDF8043031
:10BC400093800098194B10609DF804201A70184BCF
:10BC500000221A70012503E0FFF782FF0028B8D107
:10BC600001369AE7A179DBE7A27995F9000002ABEA
:10BC700039460CF011FA0028ECD00D4B0122E8E710
:10BC8000084839460CF06DFAE4E700BF9C490020F3
:10BC90008C490020944900208049002098490020C8
:10BCA0000C49002054490020104900200F49002071
:10BCB0000E49002090490020814900202DE9F04FD5
:10BCC000AB4A1368C31AB3F57A7F89B0044608DB20
:10BCD000A84B1060A84A1978917100221A70FEF7DB
:10BCE000FBFBA64E96F80090B9F1010F40F0B18031
:10BCF000A34BDFF8A0825D7EA24F4FF0550A4FF0B4
:10BD0000AA0BCDE900AB003D18BF01252B4602224E
:10BD1000B8F8000019210DF07BF8FFF735FF3B68FC
:10BD200040F2EE22E31A934240F39380CDE900AB58
:10BD30002B464A46B8F8000004210DF069F83B682C
:10BD400040F2DC52E31A934240F3838000233370C5
:10BD50008D4B4FF416621A808C4A1378013313709E
:10BD6000894FDFF848923D880F3540F6B313ADB2E6
:10BD70009D4204A828BF1D460BF080FE049B019342
:10BD80007F4B02905B7E003B18BF01230093022390
:10BD900038881A4629460CF0EBFEFFF7F5FE99F8B5
:10BDA0000080B8F1000F47D10C2105A80CF050FE1F
:10BDB000002841D09DF814000CF03AFE05460028FA
:10BDC0003AD08389002B37D04279014670480EF073
:10BDD000A9FF704B2A891A806F4B6979AA7A6C483F
:10BDE0001A8089F800100BF067FE6C4D0123287053
:10BDF000404633700CF062FE18B140460CF05EFE17
:10BE0000806D674B18605F4B186095F900000BF070
:10BE100047FE002800F08B8095F900000BF040FEF3
:10BE2000014660480CF088F906225F4800210EF0B8
:10BE30003AFF504B00221A7033786BB93B881033AD
:10BE40009BB240F6B312934288BF4FF416633B8017
:10BE500002E03378002B83D0FEF782FB18B1534BFE
:10BE60001B78002B7FD1524A1368E31AC72B02D9E3
:10BE70001460FEF731FBFEF735FB002800F0C880A8
:10BE8000464B3D4D1B782B70424B1B886B803378A3
:10BE9000012B6AD13B4B1B68E41AB4F5C87FACBFD9
:10BEA000002401243C4B2C711B886B71314B414C9D
:10BEB0001B78AB71354B3B481B78EB713E4B1B78C5
:10BEC0002B72394B1A689B88A3803C4BC5F809201C
:10BED0001B78EB730CF062F90A3428610025E9B293
:10BEE00030480CF077F9013504F8010F142D207556
:10BEF000F5D12E4B1C78002C40F0888020460CF0A9
:10BF0000DDFD70B12E4900F1080223468579DCB2CF
:10BF1000A54206D9013312F8014F01F8014F142B45
:10BF2000F4D1154809B0BDE8F04F00F003BB0A2179
:10BF300077E701370CF0E4FDFDB2A84293D928461B
:10BF40000CF0BCFD05460028F3D0FFF709FE0028E1
:10BF5000EFD028460CF0ECFD1A491B484FF46172F3
:10BF600004F0A4FD7FE70027E4E700249AE700BF80
:10BF7000884900208C490020184900209C49002055
:10BF80003E540020944900209A4900208D49002009
:10BF900082490020984900200C4900208049002057
:10BFA0009049002054490020104900208149002078
:10BFB00008490020214900200F4900200E49002097
:10BFC0003F49002046BC02005CBC020001350CF079
:10BFD00097FDECB2A042A4D920460CF06FFD0446B8
:10BFE0000028F3D0FFF7BCFD0028EFD00A4904F188
:10BFF00008020023A579D8B2854292D9013312F8FC
:10C00000010F01F8010F142BF4D18AE70025DEE7B8
:10C0100009B0BDE8F08F00BF3F49002010B54FF4D4
:10C02000005117480CF002FC164B174800241C70F6
:10C03000164B4FF416621A80154B1C70154BFF22DD
:10C040001A70154B1C70154B1C70154B1C60154B52
:10C050001C70154B1C70154B80221A80144B1C60F1
:10C06000144B1C60144B21462C221C600EF01BFE4E
:10C0700021461248BDE810403C220EF014BE00BF1D
:10C08000000200209C490020544900209A490020C9
:10C0900081490020804900208D4900208C490020E2
:10C0A000884900200F4900200E4900200C4900203B
:10C0B0000849002090490020944900201849002098
:10C0C0000128024605D0044B0448022A08BF18463E
:10C0D00070470348704700BF20BA020079C40200CD
:10C0E0006DBC02002DE9F04F044689B007F064FFF3
:10C0F000944804F051FC04F06BFB637F002B6ED07E
:10C10000914A0221322008F021FE218CE38B9942D2
:10C1100023BF0131C91A89B2002103A808F042FEE9
:10C1200003AA02215A2008F011FE03A808F032FEEB
:10C13000864A02215B3008F009FE2678022E40F084
:10C140009C80834A1A21304608F000FE94F91010B2
:10C1500005A808F027FE05AA1A21422008F0F6FDDE
:10C1600005A808F017FE7B4A1A21433008F0EEFDBF
:10C1700001250023CDE900357C2208232421304607
:10C1800008F046FD94F910203C2AA8BF3C22C2EBDF
:10C190000212D2003B2A09D93C21CDE90055B2FB5D
:10C1A000F1F206232521032008F032FD606908F032
:10C1B000F1FDC0F1800000EBD070626932214010C7
:10C1C00008F0C4FD237F012B4FD8634A0C210220C5
:10C1D00008F0BCFD07F0FEFE09B0BDE8F08F207846
:10C1E000FFF76EFF022102463220A4E70BFB08F79F
:10C1F000013BA7F17C00B7FBF3F7B0FBF3F0A369B9
:10C200009D5C13F80860142D00F1020007F102078D
:10C2100028BF1425142E28BF1426B842014609FB56
:10C2200005F5B8BF3946B5FBFAF5B842C5F13E058C
:10C23000A8BF38462A4609FB06F6B6FBFAF6C6F151
:10C240003E0608F0D3FCB5422A46B8BF3246B54296
:10C2500029463846A8BF314608F0B6FC4246237F3F
:10C2600002F101084345C1DCAFE700224FF07C0B2F
:10C270004FF006094FF0140AF1E7217A0922023142
:10C28000012008F0B3FC217A1C220231012008F0C1
:10C29000ADFC0025FF26237AEAB2934201D9542D42
:10C2A0003ED1627FB2B1228CE08B824212D3A2F5E2
:10C2B00016629A42A0F5166020EAE070A8BF03F16A
:10C2C000FF32904206DC121A142301320921023097
:10C2D00008F0CEFC214A1D21022008F037FD204A3B
:10C2E0001D21722008F032FDD4F80C9048460BF066
:10C2F0002BFB804600283BD12378012B1FD161788E
:10C30000184A194B002908BF1A462421022008F0B8
:10C310001DFD2378012B7FF45DAF144A2E2156E7D3
:10C320006368595D0901FE2907D9B1FBF6F11A22AC
:10C33000C1F11C01A81C08F047FC0135ABE70A4A13
:10C34000E3E700BF9FBC02002DBC020046C2020012
:10C35000A5BC0200BBC10200B3BC0200CCBC020001
:10C36000CFBC020072BC020089BC0200D4BC020037
:10C3700000265FFA86FB594648460BF0E9FA06EBC1
:10C38000C60A0AF120050746018805A808F00AFD3B
:10C3900005AA2946022008F0D9FC05A808F0FAFCF5
:10C3A0002F4A2946043008F0D1FCB97805A8494243
:10C3B00008F0F8FC05AA2946182008F0C7FC05A8D3
:10C3C00008F0E8FC274A2946193008F0BFFCF97844
:10C3D00005A808F0E7FC05AA29462E2008F0B6FCBF
:10C3E00005A808F0D7FC204A29462F3008F0AEFCFB
:10C3F000B8790BF0D7FA294602463E2008F0A6FC91
:10C40000F87918B3194A2946742008F09FFC022EC7
:10C4100003D00136F3B29845ABD8B8F1030F7FF6DD
:10C42000D9AE414605A808F0BDFC05A808F0B2FC4D
:10C4300005AA0221C0F17E0008F088FC05A808F0DA
:10C44000A9FC0B4A0221C0F17800C1E6637A5B4582
:10C45000DDD1092380220AF11F0108F009FCD6E78B
:10C4600009C00200BBC10200ECBC0200EEBC02002D
:10C4700073C802002DE9F743044616460A460146F2
:10C4800002201D4608F062FC221D67211A2008F0D8
:10C49000ADFBD5B3A71D3A46611C412008F094FBC3
:10C4A00086EAE672A2EBE672D2B2262312FB03F210
:10C4B00040F63B718A4214DC632A0FDC3146684641
:10C4C00008F070FC684608F065FC6A462146C0F139
:10C4D0007E0008F03BFC03B0BDE8F0836423B2FBB0
:10C4E000F3F3002EB4BFC3F141084FF0420808EB4C
:10C4F000030504F1020940463A46494608F101089D
:10C5000008F062FBA845F6DBD8E74E23F5B21A2700
:10C510005D4304F10608FF2304F10209B5FBF3F5BE
:10C520003D44BD42CADD38464246494608F04CFB10
:10C530000137F6E72DE9F047044686B007F03CFDE9
:10C54000A54804F029FA04F043F92379ABB9E3884C
:10C550009BB9A24A1821022008F0F8FBA04A222128
:10C56000022008F0F3FB9F4A2C21022008F0EEFB8A
:10C5700006B0BDE8F04707F02DBDE37B8BB19A4ACA
:10C580001621022008F0E2FB984A2021022008F040
:10C59000DDFB974A2A21022008F0D8FB954A382172
:10C5A000E3E70221944A084608F0D0FB618803A81B
:10C5B00008F0F8FB0221084603AA08F0C7FB03A80D
:10C5C00008F0E8FB8D4A0430022108F0BFFB94F923
:10C5D00000000028C0F2B3800BF056FA054628464A
:10C5E00008F0D8FB2A460221C0F17E0008F0AEFB1D
:10C5F00094F90030002BC0F2AB8094F909208049F7
:10C6000000230B20FFF736FF94F90A207D49012310
:10C610001420FFF72FFF94F90B207B4901231D20E5
:10C62000FFF728FF794994F90C2001232620FFF712
:10C6300021FF227A12F001031CBF46218DF804105D
:10C64000970706D5591C18336B44522003F8140C75
:10C65000CBB2560706D5591C18336B44482003F853
:10C66000140CCBB2150706D5591C18336B44562051
:10C6700003F8140CCBB2D00606D5591C18336B4402
:10C68000502003F8140CCBB2910606D5591C183370
:10C690006B44582003F8140CCBB2520651D55A1CE7
:10C6A00018336B444C2103F8141CD3B218336B4479
:10C6B000002203F8142C382101AA022008F046FBBE
:10C6C000617903A8494208F06DFB03AA38211C20B8
:10C6D00008F03CFB03A808F05DFB4D4A38211D30F3
:10C6E00008F034FBA17903A808F05CFB03AA382109
:10C6F000342008F02BFB03A808F04CFB3821454AF6
:10C70000353008F023FBE179A1B103A808F04AFB1A
:10C7100003A808F03FFB404A3821C0F17A0008F036
:10C7200015FB03A808F036FB03AA3821C0F17E00F0
:10C7300008F00CFB07F04EFC06B0BDE8F087374D63
:10C740004DE7002BB2D12D238DF804300123ADE746
:10C75000002604F1140735464FF001094FF0420A54
:10C760004FF00A08226909FA06F313421FD0F3B208
:10C77000B3FBF8F208FB123330338DF80630002398
:10C7800002F130018DF807303A7D3B788DF80510C5
:10C79000D21A4FF0090C0B2005FB0C00012352B2FA
:10C7A00001A98DF804A0FFF765FE0135EDB2132E47
:10C7B00009D0042D06F1010607F10107D2D1184A6C
:10C7C00038210220B4E7002DF9D1164A0B210220AE
:10C7D00008F0BCFAF3E700BFF3BC0200FBBC0200A8
:10C7E0000ABD020020BD020039BD020044BD0200A6
:10C7F00058BD020071BD020047CD02007FBF02009C
:10C800008ABD02008EBD020092BD02006ED0020001
:10C81000BBC1020096BD02009ABD020031BD0200FC
:10C82000B2BD02009DBD0200034A00231370034AFB
:10C830001380034A13807047B0490020AE4900209E
:10C84000AC490020024B1A78024B53F82200704783
:10C85000C349002028D60200024B1A78024B53F835
:10C8600022007047C24900201CD60200024B1A78F1
:10C87000024B53F8220070479A00002010D60200A5
:10C88000044B054A1878054B002818BF1A46104675
:10C89000704700BF99000020A5BB0200D4C502006C
:10C8A00008B50021084609F009FCBDE8084007F07A
:10C8B00027BD0000044A00231370044A1370044A81
:10C8C000136007F01DBD00BFB9490020B849002022
:10C8D000B449002007F014BD08B509F017FF402146
:10C8E000144809F0EBFB144A00231370134AFF218C
:10C8F0001170134A13491370134B93F85220042AF2
:10C9000028BF00220A7093F853201049032A28BF39
:10C9100000220A7093F854200D4993F85530032AE9
:10C9200028BF01220A70003B0A4A18BF0123137076
:10C9300008BD00BF00020020C1490020980000206F
:10C94000BA490020C34900203E540020C2490020BB
:10C950009A00002099000020044B1978FF2902D08A
:10C96000034809F0D7BB0020704700BF98000020A3
:10C97000BB49002037B505461E2009F0E3FE384AC2
:10C9800013681E33B3F5167F33D21360354A13682C
:10C99000EB1AB3F5FA7F0ED31560FFF7DDFF0446FF
:10C9A00008B190F90A40304A13787B2B26D8591CDD
:10C9B00011702E4AD454FDF7B3FD40B12C4A1378C0
:10C9C000062B38BF0623063B1370FDF785FDFDF7E8
:10C9D000B1FD28B1264A137806331370FDF77CFDAC
:10C9E000FFF7BAFF044690B903B0BDE83040FDF749
:10C9F0005FBD00231360FDF76FFDC7E71D497B2274
:10CA0000481E0EF037F91C4B83F8F745D3E7FDF7C6
:10CA1000A7FD28B1194803B0BDE83040FDF71EBDA1
:10CA2000FDF760FDD0B1144A28232946204604F0C2
:10CA3000FBFE0346072801460D4838BF072302784E
:10CA4000073BDBB29A4284BF03701A46064B1B7841
:10CA50000093064BA3F27C5005F07CF803B030BD88
:10CA6000A4490020B4490020B84900207C270020B8
:10CA7000B94900207D27002000220020D8D60200DE
:10CA80002DE9F34106461E2009F05CFEFFF764FF26
:10CA9000054620B902B0BDE8F041FDF709BD3A49AD
:10CAA000408A0B88834210D0384C95F90A30B4F98B
:10CAB00000209BB2002A5DD012EB420248BF033235
:10CAC00003EBA2039BB223800880EF6940F6B733E3
:10CAD000F71B9F4250D82D4BB3F90040002C03D0D8
:10CAE000B8BF033444F38704294A1368F31AF92BB7
:10CAF00016D9DFF8AC80166098F800307C2B08D18E
:10CB000024497B22481E0EF0B5F898F80030013B0E
:10CB1000DBB25A1C88F800201F4AD454FDF7DCFC15
:10CB20001E4BD87950B14CB304F16403052293FB3A
:10CB3000F2F3013324D40F2B24DCD8B207F0F0FB3E
:10CB4000304607F0FDFBFDF70BFD20B1144B002232
:10CB50001A70FDF7C1FCFDF7C5FC40B1104B1B7806
:10CB600000933A460C4B2146284605F055F802B092
:10CB7000BDE8F0819B00A5E70024B5E72346DCE78C
:10CB80000120DBE70F20D9E7AE490020AC490020A7
:10CB9000A049002001270020002700203E5400204B
:10CBA000B0490020054A1378013303F003031370E2
:10CBB000034A82F8523002F0BFBC00BFC3490020D4
:10CBC0003E54002007490B7803220133B3FBF2F2F5
:10CBD00002EB42029B1A044ADBB20B7082F853301C
:10CBE00002F0AABCC24900203E54002007490B783D
:10CBF00003220133B3FBF2F202EB42029B1A044A16
:10CC0000DBB20B7082F8543002F096BC9A00002020
:10CC10003E540020044A137883F001031370034A42
:10CC200082F8553002F088BC990000203E54002064
:10CC300008B509F051FA034B034A002818BF1A46F9
:10CC4000104608BD47CD02005CC30200084B8A4273
:10CC500010B51A700BD2805C09F04CFA062204461B
:10CC6000014604480EF05EF8034BA2791A7010BD1D
:10CC7000C1490020BB490020980000202DE9F04F59
:10CC8000044697B01E2009F05DFD544A13681E3318
:10CC9000B3F5967F39D21360514B187809F0AAFC8E
:10CCA000504B1D7806461DB1204609F05DFA054639
:10CCB0004D4B1A78B24202D01E70FDF70DFC4DB3F9
:10CCC0002B783BB3042007F02BFB204607F038FB02
:10CCD000DFF82C81454B98F800201B7806AF4021E7
:10CCE000384609F005FCBA4604464FF0000B5FFADF
:10CCF0008BF94C4513D83E4A1378A34220D3002C1D
:10CD00004ED0631EDBB213701AE000231360FDF7F0
:10CD1000E3FBC1E70EB10120D5E73046D3E71AF8AF
:10CD2000010B09F0E7F9334B81791A78914234D13C
:10CD3000314906220DF08EFF78BB2D4B83F8009011
:10CD4000FDF7EEFB50B12A4B1A780AB1013AD2B284
:10CD500021463846FFF77AFFFDF7BEFBFDF7EAFBF9
:10CD600058B1234B1A78531CA342B8BFDAB22146FC
:10CD70003846FFF76BFFFDF7AFFBFDF7F1FB88B11E
:10CD800044B11B4B38461A782146FFF75FFF1B481A
:10CD9000FDF764FB17B0BDE8F08F0BF1010BA6E7C0
:10CDA0002346B0E7FDF79EFB0028F3D0104B009719
:10CDB0001B788DF8053098F800308DF806308DF826
:10CDC000044009F04BFF8DF80C600290049509F0C7
:10CDD0004BFF0590684604F0EBFBDBE7A849002019
:10CDE0009A00002099000020BA490020C249002082
:10CDF000C149002098000020BB490020F8D602005D
:10CE0000C349002008B509F067F928B109F024F9F1
:10CE1000BDE8084009F07ABC08BD002009F08CBCD0
:10CE2000034A044800231370034A137009F084BCBA
:10CE3000C9490020B9CE0100C849002010B50446F8
:10CE40001E2009F07FFC184B1A681E32B2F5167FBF
:10CE500024D21A60FDF764FB30B1144B1A780AB182
:10CE6000013A1A70FDF738FBFDF764FB48B10F4B30
:10CE70000F491A78097801328A42B8BF1A70FDF753
:10CE80002BFBFDF72FFB70B1084A0949127809788E
:10CE900008482346BDE8104004F05ABF00221A603B
:10CEA000FDF71AFBD6E710BDC4490020C849002091
:10CEB000C9490020002200202DE9F041036886B016
:10CEC0000546002B77D03D4EDFF8F48000273378FD
:10CED000FCB2A34201D800240FE0242303FB048406
:10CEE0002B79A2799A4201D00137F0E7296806220E
:10CEF00020460DF0AFFE0028F6D1297FA86903AACD
:10CF000008F0D4F8297FA8696A4609F0D1FE002804
:10CF10004FD09CB933781F2B4DD85A1C284C3270F7
:10CF2000242202FB0344002120460DF0BCFE2968A8
:10CF3000062220460DF0F6FE2B79A3719DF80030F5
:10CF400023749DF80130DE0744BFBDF802206282E1
:10CF5000980744BFBDF80420A282590744BF9DF83A
:10CF60000620A2751A0744BFBDF808202283627C00
:10CF700022F010021343637495F90C30E3712B69AE
:10CF8000E360238904994FF6FF7293421CBF01337B
:10CF9000238181B19DF814506DB1092D28BF092559
:10CFA00004F11A002A462C440DF0BCFE0023A3769F
:10CFB00001E0002CE0D106B0BDE8F081C9490020B5
:10CFC00000220020024B4FF416621A80704700BF07
:10CFD0009C00002070B5FDF785FA18B10BF014FC29
:10CFE00004F0C0FF174D2E8840F6B314B44228BF9A
:10CFF000344621461E2230460BF0C6FA124A2988D2
:10D000001378013323445B1A40F6B2118E4298BF65
:10D010000134DBB294BFA4B24FF41664092B137031
:10D020002C8002D8B4F5166F03D100231370FDF7DE
:10D0300053FAFDF7A9FA18B1BDE87040FDF738BA08
:10D0400070BD00BF9C000020CA4900200BF088BAC8
:10D050000649074A0B781078034304D102F8013BD4
:10D060000133202BFAD100230B707047254A002092
:10D07000264A002008B50BF0AFFF38B10BF026FFB1
:10D0800004484FF41672002103F010FD024B0022F9
:10D090001A7008BD58BE02004A4A002008B5202276
:10D0A000074800210DF0FFFD054A002302F8013B6F
:10D0B0000133202BFAD1034B08221A7008BD00BFA0
:10D0C000264A00209E00002000B5B3B03A2200217D
:10D0D0000CA80DF0E8FD464B1B78002B40D11BA897
:10D0E0000BF016FD48B9434943484FF4966203F0EC
:10D0F000DDFC002033B05DF804FB05221BA90CA861
:10D100000DF010FE9DF871309DF8BF208DF8353080
:10D110000DF197010DF141008DF840200DF002FE58
:10D12000364B1B788DF83630354B1B88ADF83830D0
:10D13000344B1B788DF83A30334B1A78334B33F835
:10D140001230ADF83C300CA84FF4FA63ADF83E3025
:10D150000BF0D4FE0028CDD14FF44872014633E0E5
:10D160002B22002101A80DF09EFD1BA80BF0D0FC86
:10D1700060B305221BA901A80DF0D4FD9DF8713004
:10D180008DF809309DF895308DF82D309DF896304A
:10D190008DF82E301E4B1F491A788DF80A20002377
:10D1A0000DF10D008DF80B308DF80C300DF0BAFD3F
:10D1B000282101AA0DF141000BF040F901468DF83C
:10D1C000400058B94FF44872134890E74FF0E733E6
:10D1D000019340F2E753ADF80830DBE7052201A9DF
:10D1E0000CA80DF09FFD9DF809308DF8353097E7BC
:10D1F000474A002063BE020078BE0200A200002061
:10D20000A0000020464A00209F000020F0D7020026
:10D210009E000020264A002083BE02002DE9F04334
:10D2200089B0FDF77DF948B1554A1378002B00F01D
:10D230008B80013BDBB21370FDF74EF9FDF77AF9F5
:10D2400060B14F494F4A0B78127801335200B3FB5B
:10D25000F2F002FB10330B70FDF73EF9FDF780F999
:10D26000A8B1474B484C1B78580813F00101225CC9
:10D2700014BF02F00F031309013303F00F03002959
:10D2800066D022F00F0213432354FDF725F9FDF772
:10D2900029F9002855D006F08FFE3C48394F3C4E06
:10D2A00003F07AFB3B4A0C21022007F04FFD3A4A7B
:10D2B0001321022007F04AFD0024387884423EDA28
:10D2C0005FFA84FEA0EB0E05EDB22F4A082D28BFB1
:10D2D0000825224401AB4FF0000C4FF020085FFA04
:10D2E0008CF1A94203F1030337D370451DBF05EB51
:10D2F0004503DBB203F1FF33002320336B440022EC
:10D3000003F81C2C022001AA04F11E0107F01EFDE7
:10D310001B4B1878B4EB500F4FEA50030CDC25443C
:10D32000AB4209DAA0EB440080000723032204F19A
:10D330001D01023007F09CFC0834202CBDD106F002
:10D3400049FE09B0BDE8F0830E4B1B785B0070E727
:10D3500002F00F0242EA031396E712F8011B03F8EA
:10D36000018C4FEA111901F00F0116F80990715C58
:10D3700003F8039C03F8021C0CF1010CAFE700BF9B
:10D38000254A00209E000020264A00209FC7020058
:10D3900078D702008DBE0200A3BE020010B5104B6C
:10D3A000002498B01C700F4B1C700F4B01A81C7010
:10D3B0000BF0AEFB0D4B68B11C709DF859300C4A58
:10D3C000A34208BF022313700A4BBDF85A201A80EB
:10D3D00018B010BD01221A70FFF760FEF8E700BF19
:10D3E0004A4A0020494A0020484A0020474A002073
:10D3F000A2000020A00000202DE9F041A54E3378C6
:10D400008CB00546ABB30BF019FD28460BF0EAFDD6
:10D410000BF0E2FD044658B901464FF416729E48DF
:10D4200003F044FB34700CB0BDE8F041FDF754B894
:10D43000FDF7AAF820B10CB0BDE8F041FDF738B80F
:10D44000FDF750F8954B1E78954B1F88954B93F838
:10D4500000800BF0FFFD044628460BF0E3FD234659
:10D46000009042463946304604F012FE0CB0BDE84A
:10D47000F0818A4D8C4C2B78002B23780CBF05272C
:10D480000927002B68D0FDF74BF890B1FDF748F85D
:10D4900086490B78002803F1FF3014BF4FF0FF32AC
:10D4A0000122062818D8DFE800F00F1A213138438E
:10D4B0004900FDF73FF80028E8D1FDF751F80028B2
:10D4C000D4D000232370AEE72B78134403F001037C
:10D4D0002B7000230B702370FCF7FEFFEDE7714A01
:10D4E0001178012918BF01231370F5E76C490B88E7
:10D4F0001A44B2F5166F06DB40F6C4139A4200DCFC
:10D5000093B20B80E8E74FF41663FAE768490B78AB
:10D51000134403F003030B70DEE766490B78053311
:10D5200013440522B3FBF2F202EB82029B1AF2E7EC
:10D53000FFF7B4FD604B00221A70CDE75F490B780E
:10D540001344002B04DD202B04DCDBB20B70F1E76D
:10D550000123FBE72023F9E7FCF7E2FF50B1534A30
:10D5600013783B44013BB3FBF7F107FB1133137016
:10D57000FCF7B2FFFCF7DEFF48B14C4A13780133E9
:10D58000B3FBF7F107FB11331370FCF7A5FFFCF7B2
:10D59000E7FF80B1454B1B78002B3FF44CAF082BC5
:10D5A00007D12B782BB146480CB0BDE8F041FCF711
:10D5B00055BF012386E7012006F03AFB88B1012020
:10D5C00006F08CFBB0F57A7F0BD9FCF793FFFFF7E1
:10D5D0007BFD00283FF44AAF0123337006F08EFB39
:10D5E00021E7FCF77FFF00283FF440AF2D4B354F7C
:10D5F0001B7830333B754D237B750023BB75284B5F
:10D6000007F11E00198807F0CDFB2A4B1B78323733
:10D61000002B73D02C4A384632F8131007F0C2FBA7
:10D62000264B2A4819782A4E07F0BCFB2978294A4C
:10D63000294B0596002918BF1346049306F10A03E7
:10D6400006931B4B18780CF00DFA244B09932B789A
:10D65000234A2478234D2449002B244B18BF13461A
:10D660000B93234B039303AB0093CDE907070F4BB9
:10D6700020481B780CBF052209223236002C08BF37
:10D6800028460A9603F058FC1B4A0221342007F072
:10D690005DFBEBE64A4A0020D1BE0200474A00206B
:10D6A000A0000020A2000020494A0020484A002093
:10D6B000464A00209F000020254A00209E000020AE
:10D6C000B0D70200CB490020F0D70200114A002059
:10D6D000DF490020BABE0200C1BE0200C3C302007F
:10D6E000B8BB020018C102008CD702005CC3020064
:10D6F00047CD0200C8BE0200DEBE0200024905227C
:10D7000038460DF00FFB8BE7D9BE02002DE9F04F34
:10D710008FB0FCF7E7FE002800F0B88000F0FAFBBD
:10D720008D220446002168480DF0BDFA002514261C
:10D73000EB0606D106FB05F1C1F3C711204603F045
:10D740007FFD0BF077FE01355F48FDF71BFD06F00E
:10D75000BBFE802DECD1102200210AA80DF0A3FA07
:10D7600047F67F73ADF8343007F0B6F90027DFF8DD
:10D7700060A180463E460DF11809F9101431C9B276
:10D78000204603F05DFD1022002148460DF08BFA83
:10D7900007F0A2F90AEBC605C6F580739BB22A46CC
:10D7A000FA218346CDF8009020460BF005FF059046
:10D7B00006F08AFEDDF818C0BCF1000F2CD00598E9
:10D7C000ABEB080B2A46002399B2884202F108020B
:10D7D00064D80A9B079A63440A930B9B13440B93E8
:10D7E000BDF82020BDF830301344ADF83030BDF81E
:10D7F0002220BDF832301344ADF832309DF8243089
:10D800009DF835208DF834309DF8253030449A420B
:10D8100088BF8DF8353086B2B7F5F57F03D0FF2E7F
:10D8200007F14607A9D90BF0DBFD284B2849294D04
:10D83000CDE90103244B009332460AAB264E204625
:10D84000FDF78AFC00232B70338040F662139C4264
:10D8500006D040F67A139C4202D0B4F51B6F0ED16D
:10D860005A21204603F0ECFC08F050FF4FF41670EC
:10D8700008F068FF3080003818BF0120287000F0E1
:10D8800049FB33882A78114903F01AFDFCF768FE3A
:10D8900058B10FB0BDE8F04FFCF70ABE52F8081CB3
:10D8A000594442F8081C01338EE7FCF739FE20B1D9
:10D8B0000FB0BDE8F04FFCF70FBEFCF73BFE0028B1
:10D8C000F6D10FB0BDE8F08F4B4A0020DC4A0020B3
:10D8D000104B0020DA4A0020D84A0020024B0022D8
:10D8E0001A709A73704700BF1453002070B5054634
:10D8F000FCF716FE2A4C50B1237803220233B3FB07
:10D90000F2F202EB42029B1A2370FCF7E5FDFCF7F2
:10D9100011FE50B1237803220133B3FBF2F202EB84
:10D9200042029B1A2370FCF7D7FD2378022B13D1F8
:10D93000FCF716FE28B1A37B83F00103A373FCF769
:10D94000CBFDFCF717FE38B101F0F0FD08B101F096
:10D95000FDFEA07B06F044FF124E3368EB1AB3F5D0
:10D960007A7F01D3FCF7B8FDFCF7BCFDB0B123789A
:10D97000012B01D106F022F8FCF71AFE4FF47A735E
:10D98000281AB0FBF3F0606002F07EF8A06002F0AD
:10D9900075F8A081024804F02FFD356070BD00BF0E
:10D9A0001453002010530020014B00221A707047BE
:10D9B00026530020014B00221A7070472453002088
:10D9C00008B501F0B3FD18B1BDE8084001F0BEBED6
:10D9D00008BD00002DE9F047ADF5227D42AD0023E2
:10D9E000C5E901335F4B2B605F4B07281F788046EA
:10D9F0000E463DD0012400235C494FF00C0E9946A1
:10DA0000DAB2974201D91F2C5AD93378A34224BFE6
:10DA100000233370FCF784FD48B133782344013B85
:10DA200093FBF4F204FB12333370FCF755FDFCF763
:10DA300081FD40B133780133B3FBF4F204FB1233C0
:10DA40003370FCF749FDFCF78BFD0746002864D0D6
:10DA500033780C2202FB0352506800284ED0C26873
:10DA6000002A42D00DF5227DBDE8F047FCF7F6BC58
:10DA7000012214461F2C06D83C49D0B200235FFA7D
:10DA800083FC674503D80132072AF3D1B3E751F885
:10DA900004CB9CF804C0844503F10103EFD10C23AF
:10DAA000634304F1010C324CE91854F822E00024DD
:10DAB000C1E9014445F803E05FFA8CF40872E2E73B
:10DAC00051F8042B107940450DD104F1010A0EFBE9
:10DAD00004F405EB040C1068CCF808902851CCF83D
:10DAE00004205FFA8AF401338AE7426932B1904731
:10DAF0000DF5227DBDE8F047FCF7EEBC0C2202FBE1
:10DB000003531B7A1BB11B4A1B481370AAE70DF580
:10DB1000227DBDE8F047FCF7CBBCFCF7E3FC78B115
:10DB20000DF18809CA46FBB29C420DD81348CDF8C6
:10DB300000A0337850F82800224602A903F0FCF92F
:10DB40000DF5227DBDE8F08702AA68682B6842F8CF
:10DB5000273010B1806900B1804749F8040B0137C4
:10DB60000C35E0E7EDBE0200E8DC0200ECDC020070
:10DB7000DCD80200255300207CD80200BCD802006B
:10DB800001490720FFF726BF26530020024B034917
:10DB90001878FFF71FBF00BF255300202453002033
:10DBA0000148FCF779B900BFE6C102004FF4FA70F2
:10DBB000FCF786B9024A00231370024A13707047BB
:10DBC00048530020A4000020034AD37A013303F015
:10DBD0000303D372704700BFA4000020054A937A64
:10DBE00083F0010393720BB9138170470423137000
:10DBF000704700BFA4000020044B054A987A054BEB
:10DC0000002818BF1A461046704700BFA400002025
:10DC1000A5BB0200D4C5020010B5054C637D0BB155
:10DC200006F06EFB034A00236375136010BD00BF4E
:10DC3000A4000020C853002006F062BB08B506F01F
:10DC400029FF014B186008BDD453002038B50F4C94
:10DC50000F4D237805220133B3FBF2F202EB82026F
:10DC60009B1A2370EA5C2AB90A4B597D11B15A7587
:10DC700006F046FB084B00221A602378EA5C074B4B
:10DC800083F84F20BDE8384001F056BCCC5300204B
:10DC9000C2DA0200A4000020C85300203E54002035
:10DCA00038B50E4D2B7C013303F003032B7401F0C8
:10DCB000E5FE0446287C02F059FF30B1A04204D2B0
:10DCC0002B89241AA342C8BF2C81054B2A7C83F8D8
:10DCD0005120BDE8384001F02FBC00BFA400002057
:10DCE0003E54002038B504460BF0A4FB204601F05A
:10DCF0005BFFFCF7F7FB094D20B92B68E31AB3F57E
:10DD0000C87F02D903F076F92C60FCF73DFC18B10E
:10DD1000BDE83840FCF7CCBB38BD00BF4053002005
:10DD2000014BD87AFCF766BCA400002008B501F0CE
:10DD300045FE034B034A002818BF1A46104608BD8B
:10DD40003FC302005CC3020008B501F037FE18B102
:10DD5000BDE8084001F02CBEBDE8084001F014BE4B
:10DD600008B501F0E1FDBDE808400148FCF776BBCD
:10DD70009CDA0200014B187C02F004BFA4000020D2
:10DD800008B501F033FE03230130B0FBF3F303EBDE
:10DD90004303C01AC0B201F017FE01F027FE034B87
:10DDA00083F84C00BDE8084001F0C6BB3E5400209B
:10DDB00008B501F01BFEBDE8084001F01DBE0000E3
:10DDC00008B501F033FE034B034A022808BF1A4688
:10DDD000104608BD79BF02007EBF020008B501F001
:10DDE00025FE012814BF0120022001F017FE01F0DA
:10DDF0001DFE034B83F84D00BDE8084001F09CBBBD
:10DE00003E54002008B5054B598A21B1044806F05C
:10DE1000C9FF034808BD0348FCE700BFA400002079
:10DE200037530020A5BB020008B501F013FE0230F5
:10DE30000B28A8BF6FF0090040B201F0FDFD01F012
:10DE400009FE034B83F84E00BDE8084001F074BBA7
:10DE50003E54002010B501F0FDFD0B4C0028C4BF5E
:10DE60002B2304F8013B01F0F5FD0146204606F0A6
:10DE700099FF204601340378002BFAD1034903228D
:10DE80000CF050FF004810BD2F530020BBC1020012
:10DE900010B50A4B0A4A1B78D15C69B1094C20467F
:10DEA00006F080FF20460CF04BFF07490322204478
:10DEB0000CF038FF204610BD0448FCE7CC5300208E
:10DEC000C2DA020027530020BBC10200A5BB02003A
:10DED00008B50BF07FFA034B034A002818BF1A4617
:10DEE000104608BDD4C50200A5BB020008B50BF062
:10DEF00071FA80F00100C0B20BF060FA0BF06AFA20
:10DF0000034B83F85000BDE8084001F015BB00BF8B
:10DF10003E54002008B5044B586801F00DFEBDE8E2
:10DF200008400BF063BA00BFA4000020F7B5494DCC
:10DF30002B780646042B0CD8DFE803F0030D2E6285
:10DF400071006B6803447F2BD4BF23EAE3737F2304
:10DF50006B6003B0F0BD404F012897F9004015D128
:10DF600001340DF10701E0B202F012FB064630B9B0
:10DF70000DF1070102F00CFB0028EAD034469DF8B1
:10DF800007003C7001F0E0FD6860E2E7002CCCBFC8
:10DF900004F1FF340024E4E70BF036FA05460BF0F9
:10DFA0003DFA0446FFF7B6FF631B03EBD373012E64
:10DFB00002464FEA63031DD199B2042904D94B00EC
:10DFC0000321B3FBF1F399B2462928BF4621042966
:10DFD00038BF0421914238BF501A114434BF80B277
:10DFE00040F6381089B20BF023F903B0BDE8F040D9
:10DFF00001F038BC9BB203EB4303C3F34F01E3E7EB
:10E00000164A13790344202BA8BF2023012BB8BF45
:10E010000123137103B0BDE8F04001F08DBA2C89E3
:10E02000A4EB800401F02AFD0646287C02F09EFD48
:10E03000031E08BF1823B34224EAE47403D2F61A7D
:10E04000B442A8BF3446A4B22C81003C18BF0124BE
:10E05000AC727EE7A4000020A30000203E54002004
:10E060002DE9F041534CA57A0646DDB90BF0E2F9F3
:10E07000304601F099FD5048504A01681368711A02
:10E08000B1F57A7F03F10103136022BFE3601560ED
:10E09000066006F0FFFC4A4B1B68C01A202801D915
:10E0A000FCF71AFA474B484A1B78D55C6DB3A37A44
:10E0B000DFF82081A3B902F04FFA074601F0D8FC3F
:10E0C00085420DD8637D2BB1E37D834202D9A37DC8
:10E0D000BB4201D1A775E07506F2DC53C8F80030E9
:10E0E000D8F800309B1B002BD4BF00230123617D97
:10E0F000994253D0637553B1FCF7EEF9082006F04E
:10E100000FF9304606F01CF905E02B46EFE706F064
:10E11000F7F8FCF7E1F9FCF703FA28B14FF0FF300C
:10E12000FFF704FFFCF7D8F9FCF704FA20B101204F
:10E13000FFF7FCFEFCF7D0F9FCF712FAD0B1237818
:10E1400005220133B3FBF2F202EB82029B1A042B8D
:10E15000237009D0012B4FF0000208BF1B4B228116
:10E16000A27204BFFF221A70194A06F2DC53136030
:10E17000FCF7B2F9FCF7B6F998B1154B0D481B68DE
:10E180009B1B002BD4BF00230123237502F008FD45
:10E1900006F080FC0A4B1860BDE8F081002BADD181
:10E1A000B9E7A37A002BF7D0BDE8F041142006F0C0
:10E1B0009BBC00BFA4000020D4530020D8530020F3
:10E1C00044530020CC530020C2DA0200A3000020F8
:10E1D000D0530020C85300202DE9F7438046FFF7B5
:10E1E00099FE402106460BF0A3F95B2805463FD86F
:10E1F000C0F15C04E4B2282C28BF2824244FDFF8A7
:10E2000098903B787B2B35D85A1C09F803403A701C
:10E21000204BDB7953B1B4B3C4EBC4035B002822B9
:10E22000B3FBF2F30133D8B206F07AF8404606F0B9
:10E2300087F8FCF757F93B7800932246164B29469E
:10E24000304602F083FFFCF76BF918B14FF0FF3056
:10E25000FFF76CFEFCF76EF910B10120FFF766FEC8
:10E26000FCF77EF988B103B0BDE8F043FCF720B9B4
:10E270000024C3E77B2209F1010148460CF0FAFCB7
:10E2800089F87B40C4E72046CEE703B0BDE8F083C1
:10E29000485300203E5400204953002010B5044C40
:10E2A000638A1BB9FFF736FE608210BD0020FBE7D2
:10E2B000A400002008B50F4B9978022908D0032943
:10E2C0000DD0012912D140F6C4114FF4166003E0BD
:10E2D00040F6C41140F638100AF0AAFF02E00648E2
:10E2E0000BF028F8BDE8084001F0BCBA40F6B311C5
:10E2F000EBE700BF3E540020BCDA020010B5184C1A
:10E3000094F84C0001F060FB94F84D0001F086FB9E
:10E3100094F94E0001F090FB94F85000003818BFBB
:10E3200001200BF04BF894F851300E4A042B28BF13
:10E330000023137494F84F304BB10A2B0AD00F2BE3
:10E340000AD0142B0AD01E2B14BF00230423064A24
:10E35000137010BD0123FAE70223F8E70323F6E761
:10E360003E540020A4000020CC530020034A002388
:10E370001370034A1370034A13707047E65300206A
:10E38000E5530020E453002008B501F0CFF818B1A0
:10E39000BDE8084001F0DAB908BD000038B5934C7B
:10E3A000934A23780C2101FB0322924952680D788D
:10E3B000525D152A00F21981DFE812F016001701EC
:10E3C0002200320042004B005200600069007800D9
:10E3D00086008D0094009D00AB00B200B900C9001A
:10E3E000D700E700F5000301034403F00303824A6A
:10E3F000237000230B701370BDE8384001F09CB807
:10E400007E4A13781844441C06D03F2806DCC0B26C
:10E41000107005F0B7FCEFE70020F9E73F20F7E7C1
:10E42000764A537813EB001006D4FF2806DCC0B2FE
:10E43000507005F097FCDFE70020F9E7FF20F7E7D1
:10E440006E4B187CB0FA80F04009187405F0A9FCF6
:10E45000D2E76A4A537CB3FA83F35B095374CBE780
:10E46000664A937C0344591C04D03C2B04DCDBB289
:10E470009374C1E70023FBE73C23F9E75F4A9378F5
:10E48000034403F003039370FFF714FFB4E75B4A00
:10E49000D37803EBC0008028A8BF80200428B8BF31
:10E4A0000420C0B2D0700AF077FFA5E7534A137971
:10E4B0000344002B04DD202B04DCDBB213719BE74B
:10E4C0000123FBE72023F9E74C4A5379013303F09A
:10E4D0000103537190E7494A9379B3FA83F35B09D7
:10E4E000937189E7454BD87AB0FA80F04009D87229
:10E4F0000AF05EFF80E7414A137E03445D1C04D0AE
:10E50000022B04DCDBB2137676E70223FBE7002361
:10E51000F9E73A4A537EB3FA83F35B0953766BE724
:10E52000364AD379B3FA83F35B09D37164E7334A8C
:10E53000537A0A2101FB0033002B04DBFA2B04DCA5
:10E54000DBB2537258E70023FBE7FA23F9E72B4AC3
:10E55000137A03445C1C04D03C2B04DCDBB2137242
:10E560004AE70023FBE73C23F9E72449244A4B7F91
:10E5700012780344581C03D1013AD3B24B773BE7DE
:10E580009A42CCBFDBB20023F8E71C4AD37C034499
:10E59000052B04DD282B04DCDBB2D3742CE7062327
:10E5A000FBE72823F9E7154A137D0344002B04DD1C
:10E5B000322B04DCDBB213751EE70123FBE73223A9
:10E5C000F9E70E4A938900EB80001844B0F5966F86
:10E5D000A8BF4FF49660B0F5487FB8BF4FF44870BD
:10E5E00080B2908105F0E0F906E738BDE6530020DF
:10E5F000F8DA0200E5530020E45300203E540020E6
:10E6000084DC02002DE9F04FA74EDFF8F882327863
:10E61000A64CA74F0C2303FB0282397892F808908E
:10E620002378A1B04B4528BF002300295BD0FBF71E
:10E6300077FF28B14FF0FF30FFF7B0FEFBF74CFF3C
:10E64000FBF778FF20B10120FFF7A8FEFBF744FF9E
:10E65000FBF786FF18B100233B70FBF73DFFFBF78C
:10E6600041FF00283CD033784FF00C0A0AFB0383AB
:10E670000DF1200B1B7A534528BF534603930DF130
:10E6800050090025039BEAB2934254D8894B39784C
:10E69000894A04AD002918BF1A46114628460CF0D5
:10E6A00039FB28460CF04CFB3278844B53F822306F
:10E6B000C0B2013B13F8012F1AB1C1B20E2940F2CA
:10E6C000238100F180030DEB0300002300F8703C70
:10E6D00008AB00932378039A14A9284602F02CFC77
:10E6E00021B0BDE8F08F5268D55CFBF719FF48B147
:10E6F00023784B44013B93FBF9F209FB123323705F
:10E70000FBF7EAFEFBF716FF40B123780133B3FBBA
:10E71000F9F209FB12332370FBF7DEFEFBF720FF53
:10E7200000289CD0012D04D121B0BDE8F04FFBF7AB
:10E73000BFBE012390E731780AFB01F208EB02002B
:10E7400058F8022052F8252049F8042B4268525DFF
:10E750000023012ACBF8003003D101350BF1040B63
:10E7600090E7152AF9D801A050F822F0C5E701007A
:10E770005BE70100D1E70100DDE70100E3E701000D
:10E78000F3E70100F9E7010009E801001DE80100D5
:10E7900023E8010029E8010039E8010043E801000D
:10E7A00049E8010061E801006BE8010071E801003F
:10E7B00077E801007DE8010091E8010097E8010099
:10E7C000A1E801003D4A52F82120CBF80020C4E71F
:10E7D0003B4A11783B4806F0E5FA12E0384A517896
:10E7E000F8E7374A107C384A3849002818BF0A46EB
:10E7F000EBE7334A507CF6E7314A917C0029E9D1B6
:10E800003148CBF80000A8E72D4A9278032A03D8B4
:10E810002F4951F82220D8E72E4AD6E7284AD17846
:10E82000D8E7274A1179D5E7254A2B4950792B4A51
:10E83000012808BF0A46C8E7214A29499079294A90
:10E84000D3E71F4AD07ACEE71D4A117E012905D0B1
:10E85000234A2548022908BF0246B6E7234AB4E7FF
:10E86000174A2349507E234ABFE7154AD079BAE7B1
:10E87000134A517AAEE7124A117AABE7104A1E49A1
:10E88000527F0978914201D91C49C2E71C4A9CE792
:10E890000B4AD17C9EE70A4A117D6422514399E7D5
:10E8A000074A918996E700BFE6530020E553002010
:10E8B000E453002013C002001AC0020044DB02002F
:10E8C0003E540020DC530020A5BB0200D4C502004A
:10E8D000C8DA02002CD40200EEBF0200F5BF02002D
:10E8E000FABF0200FFBF020008C0020005C002001C
:10E8F0000BC002000FC0020084DC020088DC0200B2
:10E9000020C00200F8DA02002A540130D2E600BF2B
:10E91000014B00221A707047E75300207FB51C4D51
:10E920002988044609B91B4B19881B4A1B48137ECA
:10E93000527E0678003A18BF012206B30126CDE9BF
:10E940000106009208461E220AF012F92B8853B9DC
:10E95000104A138840F6B2118B429ABF01339BB222
:10E960004FF4166313800E4A1368E31AB3F5967FCB
:10E970000BD3146004B0BDE87040FBF7ADBD00924E
:10E9800008461E220AF036FAE0E704B070BD00BF68
:10E99000F05300202C0100203E540020EA530020B8
:10E9A000EC53002073B54C4DFFF7B8FF2E789EB3A3
:10E9B000FBF7B6FD28B1494A1378013B1370FBF70A
:10E9C0008BFDFBF7B7FD28B1444A13780133137070
:10E9D000FBF782FD022005F059F928B1FBF78AFD0B
:10E9E00000232B70FBF778FDFBF7BAFD48B13B4BDA
:10E9F0001A783B4B1A7000232B7009F00BFFFBF7C2
:10EA00006BFDFBF76FFD00285AD0344B187802B02D
:10EA1000BDE8704003F0A6BF022005F037F90446B8
:10EA200090B1FBF767FD2E4B1A783AB11E7009F0D2
:10EA3000F1FE02B0BDE87040FBF74EBD274B5522FA
:10EA40001A7001232B70F4E7FBF76AFD58B1254AD1
:10EA50001388002B36D0B3F5166F36D9013B98B228
:10EA60001080FBF739FDFBF765FD58B11D4A13888F
:10EA70006BB340F6B2118B422CD801339BB213809A
:10EA8000FBF72AFDFBF76CFD28B10AF039F810B14D
:10EA90001548FBF7E3FCFBF725FD88B1114B1D88FA
:10EAA000124B1E880AF054F804460AF059F80C4A32
:10EAB00012780092034622463146284603F018FE9B
:10EAC00002B070BD40F6B310CAE72046C8E74FF465
:10EAD0001663D4E70023D2E7E9530020E85300206F
