:020000040001F9
:109000000000012009930100319301003393010016
:1090100035930100379301003993010000000000EF
:109020000000000000000000000000003B93010071
:109030003D930100000000003F93010041930100B7
:1090400043930100439301004393010043930100C4
:1090500043930100439301004393010043930100B4
:1090600043930100439301004393010043930100A4
:109070004393010043930100439301004393010094
:109080004393010043930100439301004393010084
:109090004393010043930100439301004393010074
:1090A0004393010043930100439301004393010064
:1090B0004393010043930100000000000000000002
:1090C0004393010043930100439301004393010044
:1090D000439301004393010043930100000000000B
:1090E0000000000000000000000000000000000080
:1090F0000000000000000000000000000000000070
:10910000000000000000000000000000000000005F
:10911000000000000000000000000000000000004F
:10912000000000000000000000000000000000003F
:10913000000000000000000000000000000000002F
:10914000000000000000000000000000000000001F
:10915000000000000000000000000000000000000F
:1091600000000000000000000000000000000000FF
:1091700000000000000000000000000000000000EF
:1091800000000000000000000000000000000000DF
:1091900000000000000000000000000000000000CF
:1091A00000000000000000000000000000000000BF
:1091B00000000000000000000000000000000000AF
:1091C000000000000000000000000000000000009F
:1091D000000000000000000000000000000000008F
:1091E000000000000000000000000000000000007F
:1091F000000000000000000000000000000000006F
:109200000348044B834202D0034B03B11847704715
:109210006800002068000020000000000548064BA0
:109220001B1AD90F01EBA301491002D0034B03B164
:109230001847704768000020680000200000000008
:1092400010B5064C237843B9FFF7DAFF044B13B18E
:109250000448AFF300800123237010BD6800002094
:1092600000000000A0EF010008B5054B1BB1054947
:109270000548AFF30080BDE80840FFF7CFBF00BF4F
:10928000000000006C000020A0EF0100A3F5803A70
:10929000704700BF174B002B08BF134B9D46FFF7CD
:1092A000F5FF00218B460F461348144A121A05F0A9
:1092B00017F80E4B002B00D098470D4B002B00D019
:1092C00098470020002104000D000D48002802D01E
:1092D0000C48AFF3008005F00BF82000290000F0E7
:1092E00035FB04F0C1FF00BF0000080000000000D3
:1092F00000000000000001206800002098520020BB
:1093000000000000000000000649074A074B9B1AB6
:1093100003DD043BC858D050FBDC00F03BF8FFF7FE
:10932000B9FF0000ACEF0100000000206800002041
:10933000FEE7FEE7FEE7FEE7FEE7FEE7FEE7FEE705
:10934000FEE7FEE74FF08053D3F83001421C04BF24
:109350004FF0704393F8E00F831F58425841704715
:109360004FF0704393F8E02F062A08D1D3F8E80FA6
:1093700000F0F000A0F1300358425841704700203F
:1093800070470000024AD2F80034002BFBD070472F
:1093900000E0014010B5FFF7D5FF40B14FF080531A
:1093A0008F4AD3F82433C3F30423C2F84035FFF7C0
:1093B000D7FF10B18B4B8C4A5A67FFF7C3FF48B1F8
:1093C0004FF080534FF08042D3F84432C3F342331E
:1093D000C2F83C35FFF7C4FF30B1844AD2F8FC3004
:1093E00023F08073C2F8FC30FFF7ACFF40B14FF0C0
:1093F00080430022C3F80C21C3F81021C3F838259C
:10940000FFF7AEFF20B14FF080430322C3F8A02541
:10941000FFF7A6FF60B1764B0522C3F810260122A4
:10942000C3F888260022C3F818263F22C3F8142662
:109430004FF08053D3F83021511C09BF4FF07043D7
:10944000D3F8343193F8E02FD3F8E83F08BFC3F3E3
:109450000313062A49D1033B012B46D94FF0805212
:10946000644BD2F80414C3F82015D2F80814C3F8DA
:109470002415D2F80C14C3F82815D2F81014C3F828
:109480002C15D2F81414C3F83015D2F81814C3F8F8
:109490003415D2F81C14C3F84015D2F82014C3F8C0
:1094A0004415D2F82414C3F84815D2F82814C3F888
:1094B0004C15D2F82C14C3F85015D2F83014C3F858
:1094C0005415D2F83414C3F86015D2F83814C3F820
:1094D0006415D2F83C14C3F86815D2F84014C3F8E8
:1094E0006C15D2F84424C3F87025FFF72BFF48B160
:1094F0004FF080534FF08042D3F8583203F04F03BF
:10950000C2F8E43EFFF71EFF48B14FF08043D3F8A6
:109510000024D20744BF6FF00102C3F800244FF0CB
:109520008053D3F83021062A0BD1D3F83431033BD2
:10953000022B81BF304AD2F83C3743F48063C2F833
:109540003C372A4AD2F8883043F47003C2F8883096
:10955000BFF34F8FBFF36F8F4FF08053D3F830219D
:10956000062A0CD1D3F83431033B032B81BF4FF0D3
:109570001023D3F808224FF08043C3F858254FF04A
:109580001023D3F80022002A03DBD3F80432002B87
:1095900022DA1A4901234FF01020C1F804351524AE
:1095A000FFF7F0FEC0F80042FFF7ECFEC0F80442FF
:1095B000FFF7E8FE0023C1F80435FFF7E3FEBFF331
:1095C0004F8F0A490E4BCA6802F4E0621343CB6026
:1095D000BFF34F8F00BFFDE70A4B0B4A1A6010BD67
:1095E0000030014000C007400DF0ADBA00ED00E0D2
:1095F0000050004000C000400010004000E001406A
:109600000400FA05000000200090D00308B50F4BBD
:109610009978022908D003290DD0012912D140F6EA
:10962000C4114FF4166003E040F6C41140F6381040
:1096300004F002FB02E0064804F078FBBDE80840B5
:1096400001F002BB40F6B311EBE700BFB80A0020FF
:10965000F8EB010010B50A4C207803F02DF8607883
:1096600003F01AF8E07804F08BFBE07A003818BFBA
:10967000012004F091FBA089BDE8104002F068BE13
:10968000B80A002008B5002002F098FF18B10120A8
:1096900000F0010008BD012002F090FF0028F6D183
:1096A000022002F08BFFF3E708B5544B1B78013B17
:1096B0000B2B00F2A180DFE803F006192932414F9D
:1096C000565D666D7D8B4E4A13781844431C09D055
:1096D0003F2809DCC0B2107002F0EEFFBDE8084080
:1096E00001F036BA0020F6E73F20F4E7444A537809
:1096F00013EB001006D4FF2806DCC0B2507002F055
:10970000CBFFEBE70020F9E7FF20F7E73C4A93782F
:10971000034403F003039370FFF778FFDEE7384A52
:10972000D37803EBC0008028A8BF80200428B8BFEE
:109730000420C0B2D07004F023FBCFE7304A137985
:109740000344002B04DD202B04DCDBB21371C5E7DE
:109750000123FBE72023F9E7294A5379013303F07A
:1097600001035371BAE7264A9379B3FA83F35B098D
:109770009371B3E7224BD87AB0FA80F04009D872DF
:1097800004F00AFBAAE71E4AD379B3FA83F35B0914
:10979000D371A3E71A4A537A0A2101FB0033002B45
:1097A00004DBFA2B04DCDBB2537297E70023FBE700
:1097B000FA23F9E7124A137A0344591C04D03C2BCC
:1097C00004DCDBB2137289E70023FBE73C23F9E7F3
:1097D0000B4A938900EB80001844B0F5966FA8BF40
:1097E0004FF49660B0F5487FB8BF4FF4487080B230
:1097F000908102F0ADFD71E708BD00BF9B0900201C
:10980000B80A002008B5044B586801F085FABDE895
:10981000084004F0CDBA00BF0800002070B5344DF8
:109820002B780646032B0BD8DFE803F0020B3E4CE7
:109830006B6803447F2BD4BF23EAE3737F236B6001
:1098400070BD04F0C3FA054604F0CAFA0446FFF7F7
:10985000D9FF631B03EBD373012E02464FEA630368
:109860001CD199B2042904D94B000321B3FBF1F3B5
:1098700099B2462928BF4621042938BF04219142C4
:1098800038BF501A114434BF80B240F6381089B244
:1098900004F0D2F9BDE8704001F0D6B99BB203EBF9
:1098A0004303C3F34F01E4E7124A13791818202841
:1098B000A8BF20200128B8BF01201071BDE870406A
:1098C00001F046B92C89A4EB800401F019FA18289C
:1098D00024EAE47405D9A0F117039C42A8BFA0F1C3
:1098E0001804A4B22C81003C18BF0124AC72A7E775
:1098F00008000020B80A002010B5044601F022F943
:1099000008B101F05FF9214604484FF4487201F0B4
:1099100067FDBDE8104003F0AFB900BF60E601008D
:1099200010B503F0D3FA064C064B186023782BB120
:10993000054B587802F0B0FE0023237010BD00BF25
:109940009D090020A4090020B80A00202DE9F04F4D
:1099500099B003F01BF9AA4DAA4F03F063FA02F085
:10996000BDFD03F0A5F801F0F9F802F0B3FE02F036
:109970006BFF02F071FFFFF76DFE002445F001055B
:1099800002F0DCFD002002F00BFEC8B302F05CFF29
:109990003A461221222003F0E3FB9B4A1E211620A7
:1099A00003F0F6FB01260023CDE9003664220823EC
:1099B00028210E2003F05AFBCDE9006604232A215A
:1099C00010201322B4FBF2F203F050FB02F044FF2C
:1099D00032264FF47A40A847013EFAD16034B4F5FC
:1099E000F06FCDD101F0AEF808B101F0EBF8854889
:1099F0004FF4C872002101F0F3FC03F059F904E0C0
:109A0000022002F0CDFD0028C0D101F0E7FC01F0FA
:109A10006BFC02F08BFC02F0A5FC02F08FFF04F05F
:109A20004FF9FFF7F3FDFFF715FE03F075FC03F0A8
:109A3000DDFE03F0FDF803F049FADFF80492734B02
:109A4000DFF80082724C1860C9F80000C8F8000006
:109A500002F074FD03F03AFA237805460B2B72D816
:109A6000DFE813F00C00F200B301BD02E002F502E2
:109A70007A032C047B049A04CF043805654F664EA4
:109A800097F80AA0BAF1000F17D104F0B5F92846EB
:109A900001F054F9614AD8F800101368691A0133CB
:109AA000B1F57A7F136028BFFB604FF0010324BF3C
:109AB000C2F800A0C8F800503370002002F08AFD00
:109AC00038B14FF0FF30FFF7A9FEFFF729FF012360
:109AD0003370022002F07EFD30B10120FFF79EFEC0
:109AE000FFF71EFF01233370012002F059FDD8B1AA
:109AF000012002F08BFDB0F5167F15D93B780133BC
:109B000003F00303032B3B701EBF00233B81BB729A
:109B100002F08CFDFFF704FF012333703D4801F094
:109B2000BFFC002333700EE0012002F047FD38B186
:109B3000FFF7F6FE3A4B00221A7001232370F1E77B
:109B40003378002BEAD1374E03F088F8336841F2BE
:109B50008832EB1A93421ED902F004FC324B356076
:109B60009A791B7A002A00F0DA84002B00F0DA845C
:109B70002E4F3B787BB901F065FC214B40F2DC565F
:109B800043F0010A4FF47A40D047013EFAD1224A0D
:109B900001233B70137004F025FB18BBD9F800308B
:109BA000234F244EED1A244B9D4288BF00253B785D
:109BB00073B9737A63B14FF47A725343AB4207D2ED
:109BC00006237078B0FBF3F002F066FD01233B70D2
:109BD000337A3BB14EF6602253439D4202D9174877
:109BE000FFF78AFE2378002B3FF432AF062B00F2FA
:109BF0009E84032B3FF62CAF142003F091F927E746
:109C000080EB01009AE60100A5E60100A009002012
:109C1000B00900200800002018000020AC09002036
:109C20009C09002088000020923D00208400002034
:109C30009D090020B80A0020005C2605D4E601003A
:109C4000A4090020A8090020002002F0C3FC70B184
:109C50009F490B780F220E33B3FBF2F2C2EB0212D4
:109C60009B1A0B70FFF75CFE9A4B01221A700220C0
:109C700002F0B0FC70B196490B780F220133B3FBB0
:109C8000F2F2C2EB02129B1A0B70FFF749FE914BE6
:109C900001221A70012002F091FC002800F08F8050
:109CA000FFF73EFE8A4B1B780E2B29D8DFE803F026
:109CB00064080E15191B2250596266756D73790080
:109CC00006232370834B01221A703CE703F010FB3C
:109CD000814B00221A700723F3E703F075FD092377
:109CE000EFE70423EDE77D4A002313707C4A1370ED
:109CF0000523E6E77A4AD37A013303F00303D372EC
:109D0000744B01221A70764F09AE3C220021304676
:109D100004F0E6FAF87A00F017FCB97A714A724B4F
:109D20000F90002918BF1346109300F0E3FF6F4A0D
:109D30006F4B0096002818BF13461193644B6D4972
:109D40001B786D480F2201F025FC624B0022BBE717
:109D5000634A937A83F001039372002BD0D113816D
:109D6000CEE700F0C7FF10B100F0BEFFC8E700F07B
:109D7000ABFFC5E700F0A0FF0023A2E75F4A002386
:109D800013705F4A137002239BE7FFF73BFD5D4BA7
:109D900018800A2395E7032393E75748FFF7ACFDA4
:109DA000D1E600F0CFFE08B100F00CFF56484FF4AA
:109DB000FA72002101F014FB02F07AFFC3E6454B72
:109DC0001B78002B3FF4BFAE9DE7DFF834A1414F75
:109DD0009AF8000000283DD0002002F0FBFB38B1CB
:109DE0004FF0FF30FFF760FCFFF79AFD01233B7057
:109DF000022002F0EFFB30B10120FFF755FCFFF726
:109E00008FFD01233B70012002F0D8FB002859D0C0
:109E100000238AF80030FFF783FD01233B70DFF851
:109E2000F4B03A4E3422002109A804F059FA9BF804
:109E30000010304603F0ECF90A9608369BF8011042
:109E4000304603F0E5F99BF802200B96032A63D90C
:109E50002F4A64E002F0BEFB60B1284A13780D215E
:109E60000C33B3FBF1F001FB10331370FFF758FD17
:109E700001233B70022002F0ADFB60B11F4A137852
:109E80000D210133B3FBF1F001FB10331370FFF729
:109E900047FD01233B70012002F090FB90B1FFF7DA
:109EA0003FFD164B1B784BB900F04CFE08B100F09B
:109EB00089FE084A01232370137044E601238AF8BF
:109EC0000030ABE73B78002B3FF43DAEA7E700BF87
:109ED0009C0900201800002099090020FC000020A7
:109EE0000800002016EB010068E601003CE80100D4
:109EF0006CE60100BCEB01005DE801009B0900205D
:109F00009A090020060000209AE601009C0000202B
:109F10006EE60100B80A00207D4951F822207D4EEE
:109F20009BF803100C92304603F072F906F1080218
:109F30009BF804100D96104603F06AF906F108022A
:109F40009BF8050074490E92744A9BF80BC00128D7
:109F500008BF0A460F929BF806007149714A002813
:109F600018BF0A4610927049704ABCF1000F0CBF2E
:109F70001046084611909BF80700002818BF0A46B3
:109F8000129206F130029BF80910104603F040F9D6
:109F900006F13002139206F138029BF808101046C1
:109FA00003F036F906F138024036BBF80C10149273
:109FB000304603F02DF909AB9AF800C015960093CE
:109FC0005B485C4B5C4E1B785C490D22BCF1000F7A
:109FD00018BF304601F0DEFA00233B70B3E5DFF82E
:109FE00068A19AF80030ABB102F0BCF9544B1E687E
:109FF0004FF47A73AE1BB6FBF3F600F087FE07460C
:10A0000000F07EFE39460246304601F023FB002375
:10A010008AF80030FFF736FB00283FF494ADFFF7D5
:10A020007FFC46E7474F484E03F0E6FE284600F027
:10A0300085FE3B68EB1AB3F5C87F02D83378002B56
:10A04000E8D001F0E9FB00233D603370E2E7FFF761
:10A05000D9FB4021824603F019FF5B28074649D807
:10A06000C0F15C06F6B2282E28BF2826DFF8E4B03F
:10A07000364B9BF800207B2A3ED8511C9E548BF80F
:10A080000010334BDB795BB1002E3ED0C6EBC6002F
:10A0900040002823B0FBF3F00130C0B202F02CFDE9
:10A0A000284602F039FD9BF8003000935046274BBC
:10A0B0003246394601F062FC002002F08BFA28B1EA
:10A0C0004FF0FF30FFF7AAFBFFF72AFC022002F057
:10A0D00081FA20B10120FFF7A1FBFFF721FC01204D
:10A0E00002F06CFA00283FF42EADFFF719FC02F0E5
:10A0F000F3FCDEE60026B9E7591C18467B2204F083
:10A10000D5F8124B83F87B60BBE73046C6E700BF4B
:10A110006CEB0100B400002070E6010077E601005E
:10A120007CE6010081E6010016EB010068E6010013
:10A1300091E601009B09002087E6010088EB010001
:10A14000A00900209000002018000020FD00002041
:10A15000B80A0020FC000020DFF834B39BF8003080
:10A16000002B00F08F80FFF74DFB102206460021E8
:10A1700009A804F0B5F84FF0000A574607EB87012D
:10A1800001EB8101C9B2304601F072FC10220021BE
:10A1900005A804F0A5F8B94A05A9CAF5807302EB31
:10A1A000CA0200919BB2FA213046039203F0B6FE38
:10A1B000B34B039A03FB07FC002399B2814202F1DF
:10A1C00008026ED3099B059A13440993069A0A9BC9
:10A1D00013440A93BDF81C20BDF82C301344ADF88D
:10A1E0002C30BDF81E20BDF82E301344ADF82E30B3
:10A1F0009DF820309DF831208DF830309DF82130C9
:10A2000050449A421FFA80FA00D80FB98DF83130C5
:10A21000013702F023FD042FB0D19A4B0093524630
:10A2200009AB9649984FDFF880A2304600F044FC15
:10A2300000233B70AAF8003040F662139E4206D01D
:10A2400040F67A139E4202D0B6F51B6F0FD15A2109
:10A25000304601F00DFC03F04BF84FF4167003F09C
:10A260005DF8AAF80000003818BF01203870FFF729
:10A27000C9FABAF800303A78824901F039FC002373
:10A280008BF80030012002F099F900287FF4C7AE66
:10A2900002F094F960B1FFF743FB01238BF8003023
:10A2A00051E452F8081C614442F8081C013384E769
:10A2B000022002F083F90028EDD144E4734F744E7C
:10A2C0003B68C31AC82B06D94FF4967003F026F8E2
:10A2D00001233D603370002002F07CF940B16D4AEB
:10A2E00013780BB1013B1370FFF71AFB0123337096
:10A2F000022002F06FF978B1664F97F800A003F0E2
:10A3000003FA0AF1010A8245BEBF3B7801333B7074
:10A31000FFF706FB01233370012002F04FF982465C
:10A3200058B1FFF7FDFA03F0EFF900283FF4C1AD93
:10A33000082323700123FFF7F5BB3378002B3FF48C
:10A3400002AC544B1F7803F0F5F90146384601F092
:10A35000CBFC86F800A0FFF7F6BB4D4E337893B1E7
:10A36000282109A803F0ECF94A4B1B78984208D938
:10A3700060336B4413F83C0C03F0CCF908B101F0E6
:10A380006DFD00233370FFF77DF900283FF4DBAB50
:10A39000FFF7C6FA0723CCE73D4E33782BB103F025
:10A3A0006FFB01F025FE002333703B4F388800F12E
:10A3B000090A40F6B31B1FFA8AFAD34528BFD346D1
:10A3C00059461E2203F014FA40F6B2139A459ABF7A
:10A3D0000BF1010B1FFA8BFB4FF4166B4FF0010AC8
:10A3E000A7F800B086F800A0FFF74CF900283FF46A
:10A3F000AAABFFF795FA4FF416633B8084F800A0F0
:10A40000A7E7002002F0E6F8214E48B1234A13786E
:10A41000033303F003031370FFF782FA0123337051
:10A42000022002F0D7F848B11C4A1378013303F038
:10A4300003031370FFF774FA01233370012002F055
:10A44000AFF898B3012002F0E1F8B0F57A7F2DD98A
:10A4500002F0ECF8FFF764FA104B1978104B1888EB
:10A4600003F076FE014608B10B2362E70D484FF476
:10A47000487200F0B5FFFFF760BB00BF98010020F5
:10A4800090D00300800100207C0100208C0000207F
:10A4900018000020990900200400002098090020DD
:10A4A00006000020BFE601007A010020012002F032
:10A4B00085F8074600287FF4B2AD3378002B3FF4CF
:10A4C00042AB1D4B19781D4B188801F02DFE3770DB
:10A4D000FFF739BB03F08CFE03F084FE014628B978
:10A4E0004FF41672164800F07BFFE2E4FFF7CAF85B
:10A4F00038B103F00BFEFFF713FA4FF41672002188
:10A50000F0E70E4B1E880C4B28461F7803F088FEA0
:10A5100039460246304601F051FEFFF714BB002BCE
:10A520007FF439AB074B00221A70FFF734BB092BBD
:10A530003FF48EAAFFF760BB9809002006000020B8
:10A54000C9E60100840000200138C0B202289ABF89
:10A55000024B53F820000248704700BF04EC010092
:10A5600068E601000138C0B202289ABF014B185CAE
:10A5700000207047FEEB010010B504462AB3FFF738
:10A58000F1FF884221D9022C0ED0032C14D0012CCB
:10A590001BD101EB810303F66C1313800A23937024
:10A5A0000131D170012010BD094B33F811301380F7
:10A5B000012393702531F4E701EB810303F6651362
:10A5C0001380012393700B31EBE70020EBE700BF12
:10A5D00014EC010040F66213984210B50DD040F61D
:10A5E0007A13984215D0B0F51B6F14D0A0F66513FE
:10A5F0009AB24B2A11D923480AE00023224A422169
:10A60000117033215170373393700023D3701E487B
:10A6100010BD0123F2E70223F0E71C4A02FB03F11D
:10A62000B1F1333F10D80522B3FBF2F3164A5A2199
:10A630000B3311700A20B3FBF0F101F130045470B8
:10A6400000FB11333033DFE7A0F66C1083B23C2BF4
:10A65000D1D84243B2F1333FCDD805230A4AB0FBEB
:10A66000F3F0431C5721092B117004DC3130002317
:10A6700050709370CBE7312151700A21B3FBF1F098
:10A68000DEE700BF2AE90100B1090020CDCCCCCC27
:10A690002DE9F34701AAFFF76FFF18B9002002B0B8
:10A6A000BDE8F087BDF804709DF80630DFF85090E3
:10A6B000A7EB03084FF0000A1F441FFA88F8BFB247
:10A6C0005646544603F06EFB5FFA8AF5A84205D859
:10A6D000002EE3D0B4FBF6F0C0B2E0E7284603F06A
:10A6E00067FB804508D8874206D305EB45054D44F6
:10A6F0000136AB78B6B21C440AF1010AE2E700BFAA
:10A70000E55000202DE9F843DFF8348005460026A7
:10A710004FF6FF74012718F8019B09F1FF31C9B208
:10A720000120FFF7B5FF0136A0423CBF04464F466B
:10A73000032EF0D10DB1E4432C703846BDE8F88308
:10A7400010EC010070B5858903683DB9B3F5FA6F67
:10A7500004D209B15A230B70002070BD2F4A9342D6
:10A7600050D8447C827B74B12D4CA3420BD9052A6E
:10A7700021D9C37B362B4FF005008CBF4B235A23C6
:10A78000072D39D93AE00B2A15D94268A2F5B03223
:10A79000B2F5C04F07D8234A934295BF0420032047
:10A7A00055234B23ECE74CF25032032093428CBFED
:10A7B0004B233723E4E74489007C40B1A4F19600A1
:10A7C00080B240F23A76B04201D8042A1DD9013C49
:10A7D000B4F5C77F01D8032A1AD944F61F60834213
:10A7E00019D8032D06D9052A35BF082001202D23AD
:10A7F0002823C5E728230120193BDBB20029ACD070
:10A800000B70AAE702205523F8E706204123B7E79B
:10A8100007203723B4E701202823B1E7A0BB0D00B0
:10A82000400D03003F0D030008289ABF024B53F868
:10A8300020000248704700BF1CEC0100D1E7010076
:10A84000F8B5074603F0AEFA00240546E6B2B54275
:10A8500001D80020F8BD304603F0AAFAB84204F14E
:10A86000010224D11449154F631E04EB44040C4427
:10A870002146581C09D011F8010C0F2819D8F85C92
:10A8800011F803CC0438844513DBF31A0B49D8B212
:10A890009542DFDD63790F2B04D88B5CE678043BAF
:10A8A0009E42D7DA431CD8B201320334F0E7144693
:10A8B000CCE7013B0339DCE7E5500020585000208D
:10A8C0002DE9F84F0A9E8046894615461F461422F8
:10A8D0000021304603F004FD4FB13A683AB179687F
:10A8E00072480023A1FB000103F036FD3060B58102
:10A8F000ADBB00246423032D7481338167D800230A
:10A900007360002F00F0C3807A7BF27340F662120E
:10A91000904500F0BE8040F67A12904500F0B98074
:10A92000A8F51B614A424A4132748BB103F5C861F4
:10A9300044F61F62914240F2AE8045F2604293427B
:10A9400040F2B28044F2506293428CBF0023012354
:10A9500073744046FFF774FFB073BDE8F88F802230
:10A960000021534803F0BCFC5149002209F10404C2
:10A970004FF0320C34F83230B3F5486F2CBF3F2320
:10A98000B3FBFCF331F813000132013021F813005E
:10A9900093B2AB42EED30B88B3EB550F4FEA5500A1
:10A9A00001D900240BE0424A00240134A4B2402C17
:10A9B0009FD032F8021F0B449BB29842F5D204EBB1
:10A9C000840404EB840464001934A4B292E7802266
:10A9D0003848002103F084FC36480122A9F1080C14
:10A9E0004FF4FA645CF8321059F832305B1AB3FB5A
:10A9F000F4F3591E3E2998BF30F8131002F10102FA
:10AA00009CBF013120F8131093B29D42EAD8002474
:10AA100028490123224631F8020F904288BF9CB298
:10AA200003F1010388BF0246402BF4D1002C3FF410
:10AA300066AF022A7FF663AFB5EB820F3FF75FAFD9
:10AA40004FF4FA635C4304EB030B00234FF0010E59
:10AA50009A4659F83E105CF83E00091A8C4203D819
:10AA60008B4584BF8A4401330EF1010E1FFA8EF12B
:10AA70008D42EED8002B3FF442AFBAFBF3F36421D2
:10AA80004A43013DB2FBF5F28A1A328138E77F2250
:10AA90003BE7012248E703F2355144F21A12914292
:10AAA0003FF650AF002353E7012351E740420F0028
:10AAB000360A0020B609002037B5069C251D0095F2
:10AAC000FFF7FEFE611C2846FFF73CFE207003B036
:10AAD00030BD000030B50A4D01444FF0FF338842CD
:10AAE00001D1D84330BD10F8012B5340082243F365
:10AAF00000042C40013A84EA5303F8D1EFE700BF89
:10AB00002083B8ED10B50E4C10220021204603F032
:10AB1000E7FB4CF6200323804FF4005363804FF48F
:10AB20008173A38040F20113E3804FF4F05323813B
:10AB30004FF4807363814FF47A73A38110BD00BF1B
:10AB4000B80A0020014B1878704700BFB60A0020F1
:10AB5000014B01221A707047B60A00202DE9F0411E
:10AB6000FFF7D0FF134F144E4FF4EC240025236859
:10AB70005A1C13D0BB420ED1A388012B0BD1E18804
:10AB8000102908D104F10800FFF7A4FFD4F81880B9
:10AB9000804508BF25461C34B442E8D12DB1074892
:10ABA000102205F1080103F0C7FB054B00221A70C3
:10ABB000BDE8F08150584C41F86F0700B80A0020FA
:10ABC000B60A002000B589B01C22002101A803F0BC
:10ABD00087FB194B194A1A49CDE9012303A8102212
:10ABE00003F0AAFB102103A8FFF774FF00230790CE
:10ABF00041F2140218461C33934207D000F5EC21B1
:10AC000009680131F6D1B3F5805F09D94FF4EC2022
:10AC100001F0EEFE18B9002009B05DF804FB002039
:10AC20001C2201A900F5EC2001F000FF0028F2D061
:10AC3000044B00221A70EFE70100100050584C41FD
:10AC4000B80A0020B60A002008B58D22002110485D
:10AC500003F046FB8D2200210E4803F041FB8D22BC
:10AC600000210D4803F03CFB80220C48002103F03A
:10AC700037FB0B4A002313700A4A13800A4A1380D9
:10AC80000A4A13600A4A13600A4A137008BD00BFDB
:10AC9000FE3C0020713C0020E43B0020D10A002053
:10ACA000D00A0020540B0020520B0020CC0A0020B8
:10ACB000C80A0020563B002002488D22002103F0E4
:10ACC0000FBB00BFE43B002008B58D2203490448B8
:10ACD00003F032FB034B01221A7008BD713C0020C7
:10ACE000573B0020563B0020014B00221A70704752
:10ACF000563B0020014B1878704700BF563B0020A0
:10AD0000014B1888704700BF520B0020014B186898
:10AD1000704700BFCC0A002010B5044603F042F88B
:10AD200058B184F307034343DA11C3F3CF139842B6
:10AD30009ABF00F1FF30C0B2D0B210BD2DE9F0478C
:10AD4000044603F02FF8614A136801331360604B27
:10AD500019688446621A002978D0002A77D00C211D
:10AD60004A434FF47A71B2FBF1F212F0FF0200D0C5
:10AD70001C60584CDFF87C8194F80690DFF878E18D
:10AD80005548564DDFF874A100274646FBB29C4556
:10AD90005FD8534F4FF00008B9464046FFF7BCFF5D
:10ADA000325C00EB40002844032A83787ED8072BCE
:10ADB00094BF0023012319F8012B08F101089A42DE
:10ADC00038BF09F8013CB8F1800FE6D12279454C33
:10ADD0002378012A03F10103DBB238BF01229A4232
:10ADE00023706CD8404D414E2B8806EB4316202231
:10ADF0000021304603F074FA002217F8013B90104E
:10AE000002F00301490003F003038B40315C01327F
:10AE10000B43802A3354F0D12B8831484FF4C07251
:10AE20000133B3FBF2F102FB1133314A2B8013885B
:10AE3000B3F5C07F3CBF013313800021802203F0B3
:10AE40004FFA002323700120BDE8F0871A6000222A
:10AE50008FE707EB4703E95CB9F1000F31D01AF82F
:10AE6000073099421AD27F2918D05B1ADBB2282BFF
:10AE700028BF28239EF8001008F8013B994211D9F9
:10AE8000914211D9891AC9B20EF8011B10F8011BA1
:10AE9000994238BF00F8013C013777E70023E9E722
:10AEA0004B46E7E71946EFE70021EDE70B2A04D907
:10AEB000162A34BF022303237DE701237BE700200A
:10AEC000C2E75B29ECD85C23CFE700BFCC0A0020A7
:10AED000C80A0020B80A0020E43B0020E55000200A
:10AEE000D10A0020D00A0020540B0020560B00206D
:10AEF000520B0020FE3C0020713C002058500020E6
:10AF00002DE9F8430546F0246FF0270894FBF8F785
:10AF100000261F37304601223946083602F056F81F
:10AF2000802EF7D1F034B4F5707FEFD12F4E304F33
:10AF3000DFF8C48000242046FFF7EEFE315C01EB11
:10AF40004101C900B1F57A7F81464BDA272908DD36
:10AF50002823B1FBF3F11F22C1F12001204602F0AA
:10AF600061F817F8091001EB4101C900B1F57A7FCA
:10AF70003ADA27290ADD2823B1FBF3F1E20705D4E9
:10AF80000122C1F12001204602F020F898F800309B
:10AF900093B1A30710D1174B13F8091001EB41012E
:10AFA000C900272908DD28230122B1FBF3F120463F
:10AFB000C1F1200102F00AF80134802CBBD17F2DB1
:10AFC0000ED808242146284602F018F880F0010225
:10AFD0002146D2B22846023401F0F8FF202CF1D1EC
:10AFE000BDE8F8831821B6E71821C7E7713C0020B7
:10AFF000E43B0020573B0020563B00202DE9F04762
:10B00000204B214E5D79214F04464FF0280ADFF88E
:10B0100080804FF000093388A3421DD9B8F8003072
:10B0200003F27F134FF4C0721B1B93FBF2F102FB80
:10B0300011339BB207EB43134FEAA9029A5C09F064
:10B0400003035B001A4112F0030205D0012D11D158
:10B050005146484602F0C8F809F10109B9F1800FDC
:10B06000D9D10AF1010A0134BAF1400FA4B2CED10C
:10B07000BDE8F087012AEFD001225146484601F091
:10B08000A5FFE9E7B80A0020520B0020560B00206C
:10B09000540B00202DE9F04F074685B08946002467
:10B0A000204601222021013401F090FF802CF7D1AD
:10B0B000002F00F0868002F089FE064602F090FE26
:10B0C000864280467DD24FF0000AA0EB060B384640
:10B0D000FFF748FA5FFA8AF4A0420AD8B9F17F0F65
:10B0E0006FD801222121484605B0BDE8F04F01F09C
:10B0F0006DBF02AA21463846FFF73EFA00285DD010
:10B10000BDF80850B54259D3454557D89DF80A3087
:10B11000AC1B022BC4EBC41494FBFBF41CD9E81A3F
:10B12000801B01222121C0EBC01090FBFBF020EA24
:10B13000E070019301F04AFF019B1D44AD1BC5EB7C
:10B14000C51595FBFBF07F284FF001024FF0210160
:10B15000A8BF7F2001F03AFF9DF80B30092B88BF74
:10B160000A224FF00A0183BFB3FBF2F230328DF8AE
:10B170000C2003AA88BF0DF10D02B3FBF1F001FB17
:10B180001033303313700023537003A802F024F8F7
:10B1900000EBD070A4EB600403A802F01DF824EAD1
:10B1A000E47420447F2804DD03A802F015F8C0F100
:10B1B0007F0403AA2221204601F0EAFF0AF1010AD6
:10B1C00085E705B0BDE8F08F2DE9F84F05468846C4
:10B1D00002F0E8FD00278246AC46F8B2804528D947
:10B1E0000023154E1C464FF0FF3214E01EF801BB41
:10B1F000CB4508BF0121E645F8D151B90F4996F872
:10B20000029011F803E009EB0E018C423CBF1A4694
:10B210000C46013303365FFA83F9CA4506D8002A83
:10B2200007DB01372CB10CF8012BD6E7AE46002125
:10B23000E1E7BDE8F88F00BFE5500020E43B0020C7
:10B2400008B502460121022001F08AFFBDE808404E
:10B2500009227F21002001F0F7BE000013B5002174
:10B2600001240723CDE900140C22722001F0FEFE18
:10B27000042202217E2001F0D5FE194B9A793AB9B9
:10B28000184A2146752002B0BDE8104001F080BF89
:10B290005A798AB121460322782001F0C3FE0522A3
:10B2A0000321772001F0BEFE22460221792002B060
:10B2B000BDE8104001F08ABE1A796D2A0DD8092A1E
:10B2C00009D90A23B2FBF3F20121CDE900110523CC
:10B2D000732001F0CBFE02B010BD0A22F4E700BFDC
:10B2E000923D00206EE6010030B587B001F0ACFA67
:10B2F000022100230122CDE9003208463C237C22B2
:10B3000001F0B4FE2B4A2C4C2C4D08212E2001F0CC
:10B3100027FF2B4A1121282001F022FF294A1A2158
:10B32000282001F01DFF284A2621062001F030FFC9
:10B3300001F052FC26210246222001F029FF234A77
:10B340002D21062001F024FF6188032202A801F0CC
:10B350008AFF02AA2D21222001F01AFF02A801F083
:10B360003BFF1B4A2D21243001F012FFB4F90A10D3
:10B3700002A801F04DFF02AA2D21502001F008FF84
:10B3800002A801F029FF134A2D21523001F000FFDD
:10B39000114A3421062001F0FBFE01F05DFA40F66F
:10B3A000C41445F001054FF47A40A847013CFAD196
:10B3B00007B030BD21E80100923D002070EC010093
:10B3C00028E8010031E801003AE8010040E8010006
:10B3D0000AE8010045E8010049E8010001F026B94A
:10B3E00070B506460D46144601F02EFA304601F0BF
:10B3F000C5FE00EBD073002D4FEA63030CBF1E2186
:10B4000018213246C3F1400001F0AAFE5DB1284682
:10B4100001F0B4FE00EBD07040102A462421C0F1A8
:10B42000400001F09DFE01F017FA3CB1044D45F0DB
:10B4300001054FF47A40A847013CFAD170BD00BF26
:10B4400070EC01007FB501F0FFF900230122CDE986
:10B4500000320E2124236C220A2001F007FE0D4A3F
:10B4600014211E2001F07CFE0B4B0322198803A837
:10B4700001F0F9FE03AA2221282001F071FE074AFB
:10B480002A21142001F084FE01F0E6F907B05DF8EE
:10B4900004FB00BF62E80100923D00206EE801005D
:10B4A00030B5044685B001F0CFF9E168684601F097
:10B4B000AFFE6A460121002001F06AFE684601F0F5
:10B4C0008BFEC51C2E4A0121284601F061FE2C4846
:10B4D00001F082FEA37A05302844002B4BD123785B
:10B4E000032B4AD8274A52F82320012101F050FEAD
:10B4F0006068FFF711FC054602F05AFC01466846F9
:10B5000001F086FE01216A462E2001F041FE05EB86
:10B5100045051D4B595D7F290BD02D230DF10100F1
:10B520008DF8003001F074FE6A460121482001F0D8
:10B530002FFEFFF793FE6068FFF7E2FC6168E07A98
:10B54000FFF7A8FD2089FFF759FD238973B1FFF7A5
:10B55000D7FB18280AD9218917235943B1FBF0F1E9
:10B560007F2001F12902283101F05CFD05B0BDE822
:10B57000304001F071B9054AB7E7054AB5E700BFA9
:10B5800071E9010040EC0100E550002087E801006E
:10B590002AE901002DE9F04F85B00446984615468A
:10B5A0000391DDF8389001F04FF920464446FFF74B
:10B5B00047FE052C38BF0524053C062DE4B204D90E
:10B5C0006B1FA342DCBFAC1FE4B2AC4216DB062DFE
:10B5D0000FD93623012214FB03F1CDE90022B1FB80
:10B5E000F5F14FF4A2730A317F20B3FBF5F301F0BC
:10B5F0003DFD05B0BDE8F04F01F02EB926460A2703
:10B60000039B394653F8262004205FFA86FA4FEA56
:10B61000860B01F0A5FDB9F1000F0BD059F82600FB
:10B6200040B101F0ABFD59F80B203946C0F17D0067
:10B6300001F096FDC24505D109238022791E002024
:10B6400001F044FD372FC2D00136B54207F109079A
:10B65000D6D1BCE770B586B014460D46064601F05B
:10B66000F3F85D48FFF7ECFD5C4A0C21022001F085
:10B670008FFD01F0B1FA0C210246222001F088FD75
:10B68000574A1521022001F083FD314601A801F03F
:10B69000BFFD01AA15212E2001F07AFD01A801F0BD
:10B6A0009BFD504A1521303001F072FD4E4A1C219D
:10B6B000022001F06DFD294601A801F0A9FD01AAB3
:10B6C0001C212E2001F064FD484A2321022001F0B4
:10B6D0005FFD214601A801F09BFD01AA23212E2038
:10B6E00001F056FD01A801F077FD414C414A2321AC
:10B6F000303001F04DFD404A2A21022001F048FD82
:10B700002188032201A801F0AEFD01AA2A212E20E2
:10B7100001F03EFD01A801F05FFD384A2A213030DA
:10B7200001F036FD217901A801F072FD01AA2A215C
:10B730004E2001F02DFD01A801F04EFD304A2A21D6
:10B740004F3001F025FD2F4A3121022001F020FD6C
:10B75000B4F90A1001A801F05BFD01AA31212E20E5
:10B7600001F016FD6188032201A801F07CFD01AA09
:10B770003121462001F00CFD01A801F02DFD1F4AEA
:10B780003121483001F004FD1F4A3821022001F028
:10B79000FFFC01F0B7F8D8B101F0BCF8810A01A8AC
:10B7A00001F036FD01AA38212E2001F0F1FC01A89C
:10B7B00001F012FD154A3821303001F0E9FC144A3D
:10B7C0003821502001F0E4FC01F046F806B070BDCD
:10B7D000104A38212E20F0E78EE801003AE80100F7
:10B7E00093E8010075E601009AE80100A1E8010074
:10B7F000923D0020A9E80100AEE801000AE801003E
:10B80000B6E80100BAE80100C2E80100C8E801009A
:10B81000D0E80100CBE801002DE9F04F8BB0052105
:10B8200004A8FFF7D1FC074601F00EF84D48DFF8F9
:10B830004891FFF705FD0B244FF0080804AD18FBF5
:10B840000748A0453FD127B9474A1421022001F0FB
:10B850009FFC00250DF10F008DF80F50FEF752FFF1
:10B86000342204467F21284601F0EEFB3F4A38216E
:10B87000022001F08DFC214606A801F0C9FC382108
:10B8800006AA084601F084FC394A3821462001F016
:10B890007FFC9DF80F30642213FB02F306A8FF2102
:10B8A000B3FBF1F101F0B4FC06AA38215C2001F0F1
:10B8B0006FFC304A3821682001F06AFC00F0CCFFB0
:10B8C0000BB0BDE8F08F287802F072FA0146064608
:10B8D00006A801F09DFC06AA2146022001F058FCB2
:10B8E0003046FEF777FE0378AA4602461BB1214692
:10B8F0001A2001F04DFC2B7803EB43034B444FF02F
:10B90000010B9E780023C6EB0616CDE9003BB6007E
:10B9100005233E2221462C2001F0A8FBFE2E0ADD45
:10B92000FF22CDE900BBB6FBF2F2032304EB0B01CF
:10B930002D2001F09BFB9AF8003003EB43034B44AE
:10B9400064229B78FF2113FB02F306A8B3FBF1F1FD
:10B9500001F05EFC214606AA6E2001F019FC0135BB
:10B9600008346EE7D8E80100E0E80100EEE80100E5
:10B97000FBE80100B6E80100E55000202DE9F041A8
:10B9800086B080461E460D4614469DF8307000F085
:10B990005BFF414602A801F03BFC02AA0121022004
:10B9A00001F0DEFB02A801F0E9FB2E4A012105307F
:10B9B00001F0D6FBFFF752FC09227F21002001F0A5
:10B9C00043FB7F2D29D1284A1421282001F0C8FBF0
:10B9D00001250023CDE90035782208231A2104200F
:10B9E00001F044FB64B104EB4402782ACDE9005530
:10B9F0004FF00603A8BF78221B21052001F036FB7B
:10BA00000024BC421FD13F227F21002001F01CFBFB
:10BA100000F022FF06B0BDE8F0812D2329460DF18C
:10BA200009008DF8083001F0F3FB02AA0E21042072
:10BA300001F096FB02A801F0A1FB0C4A0E21083090
:10BA4000C4E7142107E07C2CDDD0315D2929F8D82A
:10BA5000012905D949103E22511AA01C01F0E2FA31
:10BA60000134CEE700E9010004E901005FEB0100C9
:10BA700030B587B005460C4600F0E6FE1948FFF7E2
:10BA8000DFFB294602A801F0C3FB02AA14211E20F5
:10BA900001F066FB02A801F071FB134A1421223069
:10BAA00001F05EFB114A20211E2001F071FB0125EF
:10BAB0000023CDE900356422082328210E2004EB61
:10BAC000440401F0D3FA640104232A211020CDE9B3
:10BAD00000556422B4FBF2F201F0C8FA00F0BCFE9B
:10BAE00007B030BD0AE9010000E9010013E90100D7
:10BAF000F0B5064687B01F4615460C4600F0A4FE7A
:10BB0000314601A801F084FB01AA0121022001F0C5
:10BB100027FB3046FEF75EFD037802461BB102218B
:10BB20001E2001F035FB09227F21002001F08CFA54
:10BB3000002D40F0B5802078FEF776FE02460C21FD
:10BB4000022001F00DFB5A4A1621022001F020FBD1
:10BB5000002D40F0A780617801A801F059FB01AAEF
:10BB60001621322001F014FB01A801F035FB514AE7
:10BB70001621343001F00CFB4F4A1F21022001F046
:10BB800007FBA17C01A801F043FB01AA1F21222091
:10BB900001F0FEFA01A801F01FFB484A1F212430E2
:10BBA00001F0F6FA464A2621022001F0F1FA642655
:10BBB0006168B1FBF6F1022201A801F054FB01AA71
:10BBC0002621222001F0E4FA01A801F005FB394A00
:10BBD0002621243001F0DCFA3A4A2D21022001F01E
:10BBE000D7FA0A23E189B1FBF3F1022201A801F09F
:10BBF0003AFB01AA2D21222001F0CAFA01A801F086
:10BC0000EBFA314A2D21243001F0C2FA1F212F4ACC
:10BC1000462001F0BDFAA168002945D0B1FBF6F13C
:10BC2000012201A801F01FFB01AA1F21662001F0DB
:10BC3000AFFA01A801F0D0FA234A1F21673001F0C2
:10BC4000A7FA234A2621462001F0A2FA218A01A858
:10BC500001F0DEFA01AA2621662001F099FA6DB101
:10BC60001C4A2D21462001F093FA394601A801F023
:10BC7000CFFA01AA2D21662001F08AFA35227F2110
:10BC8000002001F0E1F9144B144A3921002D18BFAE
:10BC90001A46022001F07CFA00F0DEFD07B0F0BD8C
:10BCA0000F4A4CE7632157E70E4A1F216620C6E77B
:10BCB0005FE90100B6E801006AE9010070E90100EE
:10BCC00074E9010013E8010079E901007CE9010051
:10BCD00083E901008AE901002BE9010044E9010040
:10BCE0001DE90100CBE801002DE9F04F91B006AF4E
:10BCF0000C4606462821384601F022FD054600F094
:10BD0000A3FD514A0121022001F02AFA01F0FCFCB6
:10BD1000014602A801F07CFA02AA02211C2001F0CF
:10BD200037FA02A801F058FA484A02211E3001F001
:10BD30002FFA214602A801F06BFA02AA0221422042
:10BD400001F026FA02A801F047FA414A02214430E4
:10BD500001F01EFAFFF782FA09227F21002001F08C
:10BD600073F94DB93B4A1C210E2001F0F9F900F09E
:10BD700073FD11B0BDE8F08F052E344638BF0524A1
:10BD8000053C062DE4B204D96B1FA342DCBFAC1FF7
:10BD9000E4B2AC42EBD2DFF8C0A04FF00C094FF098
:10BDA000000B385D01F0B6FC43781A0903F00F036D
:10BDB0001AF802201AF803308DF800208DF80130AF
:10BDC00003781B0980461AF803308DF80230037897
:10BDD0008DF804B003F00F036A461AF803308DF8AB
:10BDE00003304946022001F0D3F998F80E0001F023
:10BDF000DDFC0378024603B34946162001F0C8F97A
:10BE000098F9081002A8494201F002FA02AA49462C
:10BE10006A2001F0BDF9A64206D10823802209F16B
:10BE2000FF31002001F052F9B9F1390F9FD00134F0
:10BE3000A54209F10909B4D199E798F81830002B07
:10BE4000DED008F11802D7E7C4E7010092E901004B
:10BE500096E901009AE9010050EC0100F0B58BB0C1
:10BE60000446594D00F0F0FC5848FFF7E9F93A272D
:10BE700005220023A65C03F12800310906F00F0615
:10BE80006844695CAE5D00F8281C00F8276C991CBA
:10BE9000002A00F0978028316944033301F8287C98
:10BEA000013AE7D228336B44002203F8282C0C21F6
:10BEB0006A46022001F06CF9A179454B454A0220FF
:10BEC000002918BF1A46152101F062F9237E2BB113
:10BED00004F118021D21022001F05AF9A07B01F0A3
:10BEE00065FC037802461BB11D21462001F050F984
:10BEF000394A2621022001F04BF994F9081005A8CF
:10BF0000494201F085F905AA2621222001F040F9D5
:10BF100005A801F061F9314A2621243001F038F9F1
:10BF20002F4A2621462001F033F9618905A801F046
:10BF30006FF905AA2621602001F02AF9D4E9043618
:10BF4000284A2E210220F61A4FF47A73B6FBF3F634
:10BF500001F01EF9314605A801F05AF905AA2E2173
:10BF6000322001F015F905A801F036F91E4A2E21FC
:10BF7000343001F00DF9A38903B31C4A36210220A5
:10BF800001F006F9A3891A0B3621AA5C8DF814205A
:10BF9000C3F303223220AA5C8DF81520C3F30312E9
:10BFA00003F00F03AA5CEB5C8DF816208DF81730B8
:10BFB00005AA00238DF8183001F0EAF800F04CFCD7
:10BFC0000BB0F0BD0B466BE750EC0100BFE9010080
:10BFD000A7E90100B3E90100C6E90100CBE90100CE
:10BFE00096E90100CFE9010075E60100D8E90100FA
:10BFF0002DE9F04385B0044600F026FC424A0121B9
:10C00000022001F0ADF82146684601F001F96A46C8
:10C010000221502001F0BCF8684601F0DDF83B4AEF
:10C020000221523001F0B4F809227F21002001F0F2
:10C030000BF801F00FFD074698B9354A142102208C
:10C0400001F0A6F8334A1E21022001F0A1F8324A7D
:10C050002821022001F09CF800F0FEFB05B0BDE8AD
:10C06000F083DFF8BC80DFF8BC900B240025284665
:10C0700001F0F6FC06460188684601F0C9F86A46F8
:10C080002146022001F084F87179684601F0C0F879
:10C090006A4621461C2001F07BF8684601F09CF8B6
:10C0A000424621461D3001F073F87188684601F060
:10C0B000AFF86A462146302001F06AF8684601F080
:10C0C0008BF84A462146323001F062F801352D23C3
:10C0D00031798DF800300DF1010001F099F8EDB2E1
:10C0E0006A462146682001F053F8AF4203D0052D7F
:10C0F00004F10904BBD137227F21002000F0A4FF06
:10C10000064A3A21A5E700BFE0E90100EAE901009B
:10C11000EFE9010009EA010020EA010034EA010028
:10C12000CDE9010096E9010030B585B00C46054621
:10C1300000F08AFB1A48FFF783F81A4A0C21022004
:10C1400001F026F8184A1421022001F021F8174ABC
:10C150001C21022001F01CF8154A2621022000F0C3
:10C16000FFFF2946684601F053F86A462621282039
:10C1700000F0F6FF0F4A3021022000F0F1FF2046C8
:10C1800002F066F830210246282000F0E9FF0A4A52
:10C190003A21022000F0FCFF00F05EFB05B030BD4C
:10C1A0004FEA010057EA01006CEA010083EA01004E
:10C1B00097EA01009CEA0100A0EA010070B586B090
:10C1C00006460D46144600F03FFB00210123CDE951
:10C1D000003308460C23802200F048FF224A022147
:10C1E0001E2000F0BDFF00210C238022084600F035
:10C1F0006DFF314602A801F00BF8142102AA08468F
:10C2000000F0AEFF02A800F0B9FF184A1421183060
:10C2100000F0A6FF284602F01BF820210246142059
:10C2200000F09EFF124A2E21022000F0B1FF02A86A
:10C230004FF47A71B4FBF1F100F0EAFF02AA2E216B
:10C240002C2000F0A5FF02A800F0C6FF2E21084414
:10C25000084A00F09DFF084A3821022000F098FFAC
:10C2600000F0FAFA06B070BDB5EA010000E901007D
:10C27000BFEA010075E60100C8EA01004FF0A043E3
:10C280000021C3F80817084B01224FF4A020C3F87F
:10C29000F025C3F8F415C3F81805C3F81025C3F842
:10C2A0001415C3F80025704700700040054B026864
:10C2B0001AB10023036001207047013BF7D11846F3
:10C2C000704700BF40420F0013B5144914480023C3
:10C2D00001240DF10602ADF80630C1F82C26C1F894
:10C2E0003046C1F80031C1F80431C1F814310C6096
:10C2F000FFF7DCFF18B94FF0FF3002B010BD09485E
:10C300004C60FFF7D3FF0028F5D007488C60FFF79B
:10C31000CDFFBDF8060000B2EFE700BF007000409F
:10C3200000710040047100401471004008B5FFF72F
:10C33000A5FF054905480123CB60FFF7B7FF0023A0
:10C34000C1F8003508BD00BF00700040107100400A
:10C35000A0F54873B3F5C87F9CBF014B18807047A8
:10C360001A000020F8B5564D032445F001054FF49E
:10C370007A40A847013CFAD1FFF780FFFFF7A4FFFE
:10C380004FF0FF3508262C46FFF79EFF002804DB00
:10C39000A0420CDC8542B8BF0546013EF4D1494BB2
:10C3A000002DC3F8006505DA002C04DAF8BD254637
:10C3B0000446F2E72C4644F6B57363434FF47A62C1
:10C3C000B3FBF2F3404A41481288448153434FF48F
:10C3D0007A72B3FBF2F34FF0A042A3F6C414D2F882
:10C3E000102543806FEAD20101F00101417140F64E
:10C3F00034018C4203D90023C3800372D6E7344C46
:10C40000216819B1C1EBC1010B44DB0823609BB269
:10C4100041F267040121A342038081714AD82D4E65
:10C4200036F82170BB4206EB81043ED3013906EB9E
:10C430008105A478AD7836F821102D1BA3EB070CED
:10C44000EDB21FFA8CFCC91B0CFB05F589B2B5FBDC
:10C45000F1F12144C9B204792CB1651CA94202DC76
:10C460004D1CAC4200DD017112F008021A4C23D0C1
:10C4700040F6B142934240F647518CBF0022012260
:10C480008B4219D82178003918BF01210123C171CD
:10C4900022B12278022A94BF00220122027213B133
:10C4A00023780133DBB2237080E701310D29B7D146
:10C4B0000021D0E76421CEE700231A461946E6E7BB
:10C4C00080EC0100007000401A000020923D002026
:10C4D0008C3D002086EC0100903D002070B5164C8C
:10C4E00022784FF0A04502F5E0720C2345F8223087
:10C4F000227D02F5E07245F8223094F8282002F5FA
:10C50000E07245F82230C5F80C3700F0DFFC00215E
:10C5100023460C46D5F810251E781C71F240D243F4
:10C52000013102F001020329C3E902005A709A7036
:10C5300003F11403EED170BD1C00002070B500F0B3
:10C54000C5FC164B00214FF0A0461C78D6F81025EC
:10C55000E24002F001025C7882F00105AC4207D0B3
:10C560005D7098600131032903F11403EDD170BDB2
:10C570009D78A542F6D09D68451B132DF2D99C707D
:10C5800042B900F5C8721A611A79D86082F00102C6
:10C59000DA70E7E700221A71E4E700BF1C00002010
:10C5A000054B142202FB0033987810B1187980F003
:10C5B000010000F0010070471C000020044B142211
:10C5C00002FB0033D87808B10022DA70704700BF50
:10C5D0001C00002038B50546FFF7F0FF044678B987
:10C5E0002846FFF7DDFF60B100F070FC064B142217
:10C5F00002FB05331A69821A002A02DB8C301861AB
:10C600000124204638BD00BF1C00002010B50446A0
:10C61000FFF7C6FF38B100F059FC034B142202FBB0
:10C620000433DB68C01A10BD1C000020074B002239
:10C630009978DA701971DA75997D83F82B2093F85F
:10C640002A20197683F82C20704700BF1C00002098
:10C6500037B54FF0A0444FF080534FF000658DF890
:10C6600007000121C4F80C350DF10700C4F80C5582
:10C6700000F094FBC4F8085503B030BD38B5054D43
:10C68000044645F001054FF47A40A847013CFAD131
:10C6900038BD00BFC0EC0100C0F58070044B6FEAEC
:10C6A00040406FEA50401880024B01229A60704768
:10C6B0005800002000C0014010B504468120FFF75B
:10C6C000C7FF3F2C2046BDE8104028BF3F20FFF7A2
:10C6D000BFBF000070B54FF0A04403254FF00063CA
:10C6E000C4F86C57C4F87057C4F87457C4F80835C8
:10C6F0004FF48023C4F84857C4F8083500F00EFB07
:10C700004FF08043C4F87857C4F80C3503F5E03394
:10C710001E22C3F860254FF0FF32C3F864250421C0
:10C72000C3F868250025C3F86C254FF48072C3F860
:10C7300004552A48C3F80C15C3F808250122C3F88C
:10C7400010554FF00056C3F82005C3F82425C3F850
:10C750002855C3F82C55C3F840054FF6FF70C3F8B1
:10C760004425C3F84855C3F84C55C3F81405C3F81D
:10C7700000126420C3F800259A60C4F80C65FFF726
:10C780007DFF6420C4F80865FFF778FFE220FFF71B
:10C790005FFF0A20FFF772FFA220FFF759FFA020DA
:10C7A000FFF756FFC820FFF753FF2320FFF750FF86
:10C7B0008120FFF74DFF3220FFF74AFF2F20FFF7C0
:10C7C00047FFB020FFF744FFA620FFF741FFAF204F
:10C7D000FFF73EFF024B1D7070BD00BF58000020E8
:10C7E0009E3D002038B5164B4FF401421A80154B80
:10C7F00001229A6000224FF0A044C3F800254FF0B8
:10C80000FF32C3F8602503254FF08043C4F8785702
:10C810003220C4F80C35FFF731FF00F0A7FA0223ED
:10C82000C4F86C37C4F87037C4F87437C4F8783774
:10C830004FF48023C4F84857C4F8083538BD00BF0A
:10C840005800002000C0014002484FF480620021DF
:10C8500001F046BD9F4100202DE9F8431D4D1E4EBD
:10C86000DFF87880B02498F8003053BB2046FFF7FB
:10C87000EFFE0020FFF7ECFE4FF0A0471020FFF77F
:10C88000E7FE4FF000694FF08053C7F8083580216C
:10C890002846C7F80C9500F081FAC7F80895802261
:10C8A0002946304601F048FD0134E4B2B82C05F1C8
:10C8B000800506F18006D6D1012388F80030BDE856
:10C8C000F88380223146284601F0E0FC0028CDD1D3
:10C8D000EAE700BF9F4100209F3D00209E3D0020D1
:10C8E00037B54FF0A0444FF480258DF807000121A3
:10C8F000C4F80C550DF1070000F050FAC4F80855C3
:10C9000003B030BD024B1868003818BF01207047D3
:10C91000A0450020014B1868704700BFA0450020CB
:10C9200010B5AB20FFF7DCFF034BBDE810404FF420
:10C93000486043F001031847D0EC0100F7B54FF011
:10C94000A04503274FF48026C5F84877C5F8086549
:10C95000FFF7E6FF00249F238DF80330ADF8044075
:10C960008DF806403B4601AA0121C5F80C650DEB88
:10C97000070000F033FAC5F808659DF805209DF81A
:10C9800004309DF80610120242EA03420A4313D013
:10C990006FF07F439A4212D0A1F11003092B9CBF84
:10C9A000012303FA01F4201E18BF012005490A6083
:10C9B000054A146003B0F0BD14461046F6E7204661
:10C9C000F4E700BFA4450020A045002038B5064C80
:10C9D000064DD5F80004012804D000F03FF9013CD1
:10C9E000F7D1204638BD00BF002D310100E00140E5
:10C9F00070B5C0F30B060546A6B90B4C0223C4F86C
:10CA00000435FFF7E3FF50B1C4F80855FFF7DEFF28
:10CA100028B1C4F80465BDE87040FFF7D7BF002314
:10CA2000C4F80435002070BD00E0014010F0030F91
:10CA30002DE9F74380460F46144632D11B4B0122A5
:10CA4000C3F80425FFF7C2FF38B3E61C26F003063F
:10CA5000A61B25464FF0FF392744B54208D1134B9A
:10CA60000022C3F8042503B0BDE8F043FFF7AEBFD2
:10CA7000042D2A46A7EB050128BF042201A8CDF802
:10CA8000049001F059FC08EB04035B1B019A1A6047
:10CA9000FFF79CFF043D0028DFD1044B0022C3F8C0
:10CAA0000425002003B0BDE8F08300BF00E0014092
:10CAB0004FF0A0430322C3F87C274FF00042C3F895
:10CAC0000825034A00231370024A1370704700BF01
:10CAD000B0450020A8450020054A002313704FF000
:10CAE000A0424FF00041C2F80815024A1370704787
:10CAF000B0450020A8450020054B187038B94FF00C
:10CB0000A0434FF00042C3F80825024B187070474D
:10CB1000B0450020A845002030B5194B197851B117
:10CB2000FF29184B08D14FF0A0424FF00041C2F846
:10CB30000C1501221A7030BD134C1D782268821A20
:10CB40008DB1002AF7DB4FF0A0424FF00045C2F84C
:10CB500008550C3800221A704FF47A73B3FBF1F3C6
:10CB600018442060E7E7002AE5DB4FF0A0424FF0D1
:10CB70000041C2F80C1501221A700C30F1E700BF19
:10CB8000B0450020A8450020AC4500200E4B0F4AC0
:10CB90009A604FF08043D3F82025A2F15A014A420F
:10CBA0004A410B490A700022C3F820250949D3F8ED
:10CBB000000408604FF0FF31C3F800141D21C3F8D2
:10CBC0001015C3F80821704700ED00E00090010047
:10CBD000B9450020B44500200D4B1B6899070DD4C2
:10CBE000DA030DD4D8070DD459070DD41A070DD484
:10CBF000084A0948002B18BF10467047074870477D
:10CC0000074870470748704707487047074870470C
:10CC1000B445002019EB010010EB0100F2EA01001D
:10CC2000FBEA010000EB010004EB010009EB01004D
:10CC300007490A7852B9074BC3F80C25064AC3F8CE
:10CC400004250122C3F808251A600A70704700BF46
:10CC5000B845002000000140FFFF0300034B1B7894
:10CC60001BB1034B034AC3F800267047B8450020A8
:10CC7000000001403546526E08B5FFF7E5FDFFF7AD
:10CC8000EBFDFFF7AFFDFFF727FF00F0CBFF4FF005
:10CC900080435A22C3F820254FF0A0420349C2F82E
:10CCA00018170122C3F80025FEE700BF0C0003009F
:10CCB0004FF08043B122C3F81C25BFF34F8F0549C5
:10CCC000054BCA6802F4E0621343CB60BFF34F8F99
:10CCD00000BFFDE700ED00E00400FA050C4BC3F8CF
:10CCE0004405C3F848150B49C3F83415C3F8382573
:10CCF0000022C3F8182101221A61074AD3F818113B
:10CD000009B9013AFAD10022C3F81821704700BFCF
:10CD100000300040BA45002080841E004FF0A04340
:10CD20000322C3F86827C3F864274FF08062C3F872
:10CD30000C250022C3F84C270B4B1A21C3F8081509
:10CD40001921C3F80C151321C3F810154FF0004139
:10CD5000C3F82415C3F85425FF22C3F8C0250722C1
:10CD6000C3F80025704700BF003000400A4B002286
:10CD7000C3F800254FF0FF32C3F80825C3F80C258F
:10CD8000C3F810254FF0A0430222C3F86827C3F868
:10CD90006427C3F84C27704700300040F8B50E4FA9
:10CDA00004460D4605B9F8BDFF2D2E4628BFFF26C7
:10CDB000B4F1005F0CD232462146384601F0BCFA8D
:10CDC000002231463846FFF789FF3444AD1BE9E7BE
:10CDD000002231462046F6E7B9460020FF2928BF49
:10CDE000FF21FF2BF8B50C461F46164628BFFF272C
:10CDF0000A46014609481D4601F09EFA07483A19BD
:10CE00002146FFF76BFF3DB105493A4621443046C4
:10CE1000BDE8F84001F090BAF8BD00BFB946002067
:10CE2000BA45002030B54FF08043D3F8182412F4EF
:10CE3000803217D10121C3F81815C3F804211D4A07
:10CE40009960D3F8041169B9013AFAD1C3F81825E9
:10CE500001229A60174B4FF08042D2F8041109B9B1
:10CE6000013BFAD1144B012200214FF0FF305A60F0
:10CE7000C3F80815C3F84803C3F808039A601A609A
:10CE80000E4B19600E4B00240025C3E900450D4BE5
:10CE90005A60C3F804150321C3F808150421C3F828
:10CEA0001015DA601A60084A136943F01003136121
:10CEB00030BD00BF00127A0000100140C0470020C2
:10CEC000B84700200080004000ED00E00D4B0E4A06
:10CED000D3F80435106823F07F4313600B4A181A07
:10CEE000D2E9001320F07F40401843F100037D2178
:10CEF000C2E90003A0FB010201FB0323000B40EA8F
:10CF00000350704700100140C0470020B847002080
:10CF1000024B01225A64D3F8440570470080004058
:10CF200020B3C003B0F5FA6F24BF4FF47A73B0FB9F
:10CF3000F3F00F4BD3F8042538BF0220024422F04F
:10CF40007F42C3F840254FF480310022C3F84021CE
:10CF5000C3F8041340BF20BF20BFC3F80813C3F8B1
:10CF60004021044B4FF40032C3F88021704700BFCA
:10CF70000010014000E100E0A0F13003DAB2092A1C
:10CF800004D80E4803EB430318447047A0F1410353
:10CF9000DAB2192A03D80A4803EB4303F4E7A0F1F5
:10CFA0006103DAB2192AF6D92B38C0B20F289ABF1A
:10CFB000044B53F820000448704700BF78ED01008F
:10CFC0002AED0100D8EC010027ED01007F2830B5E3
:10CFD0000ED83F290CD8CB10074D00EBC31001F041
:10CFE000070101242B5C04FA01F112B10B432B540D
:10CFF00030BD23EA0103FAE79F4100207F280CD8C7
:10D000003F290AD8064BCA1003EBC21301F00701EF
:10D01000185C084100F0010070470020704700BF15
:10D020009F410020914270B506460D46144604DC2F
:10D030000C461546A54200DA70BD01222146304655
:10D04000FFF7C4FF1444F5E7884270B505460C4667
:10D05000164604DC04460D46A54200DA70BD0122E6
:10D0600020463146FFF7B2FF1444F5E72DE9F04FB3
:10D0700085B00E4687189DF838109DF83CA00191A8
:10D080000546044607F1FF3BA74219DC05B0BDE8A1
:10D09000F08FAC4207D0A34505D0B14203D08945FB
:10D0A00001D0019A3AB15246204603930291FFF70C
:10D0B0008DFFDDE9021301318845EADC0134E3E745
:10D0C00006EB0308314608F1FF39F5E72DE9F04199
:10D0D0000E460446871801EB0308A74211DCBDE8A1
:10D0E000F08129462046FFF789FF80F0010229469A
:10D0F000D2B22046FFF76AFF0135A845F1DC0134C2
:10D10000EBE73546F9E70000A2F120035A2B88BF70
:10D110002022203A2DE9F047104BD4B204EB8404CE
:10D1200006460F461C444FF0000814F8019B0025EA
:10D1300006EB080A49FA05F3DB0704D50122E919D1
:10D140005046FFF743FF0135082DF3D108F10108E0
:10D15000B8F1050FE9D1BDE8F08700BF96ED0100F9
:10D1600070B504460E46551E15F8012F02B970BD64
:10D1700020463146FFF7C8FF0634F5E70023C25CBE
:10D1800022B9062202FB03F0013870470133F6E7AB
:10D190002DE9F04704468846571E17F8010F08B9D5
:10D1A000BDE8F087FFF7E8FE00258146002604EB86
:10D1B000050A19F805303341DB0705D5012206EBD6
:10D1C00008015046FFF702FF0136052EF1D1013567
:10D1D000032DEBD10434E0E70023C25C12B99800C0
:10D1E000013870470133F8E730B4084C00F001050E
:10D1F00001F0010304EB4504E35C934203D230BC2D
:10D200000122FFF7E3BE30BC704700BF5DEF0100B5
:10D21000F0B585B081EAE17301ADA3EBE1730022C3
:10D220002C464FF00A0CB3FBFCF70CFB17363036DC
:10D2300005F8016B1E46092E02F101023B46F2D8A9
:10D2400003460029BCBF2D2103F8011BA1189D181E
:10D250001C4611F8016D04F8016BAC42F9D10021B4
:10D26000995405B0F0BD2DE9F843164607460C4623
:10D2700000234FF001080A22B3421FDB002CBFBF7E
:10D2800038462D23644200F8013B94FBF8F9A8BF0F
:10D2900038464946FFF7BCFF054601302B78002B86
:10D2A000FAD1002E20DD2E2305F8013B08FB19449E
:10D2B00006F1FF3C0A212346002206E002FB08F8A3
:10D2C0000133D9E7013293FBF1F36245FAD193FBC5
:10D2D000F1FC01FB1C33303300F8013B02F1FF3C51
:10D2E000002AE8D10023AB553846BDE8F88300009A
:10D2F00008B54FF4B4620548002100F0F1FF044A7C
:10D3000000231370034A136008BD00BF0C480020BF
:10D310000848002004480020FFF7EABF2DE9F04F3D
:10D32000022889B08ABF03230120B0FBF3F04FF439
:10D330007A7343430593B64B0193B64B0693B64DB0
:10D3400000230293019B13F8012B0193069B13F812
:10D35000011B069301232B61B04BD5F81001002867
:10D360006AD00023C5F810310323C5F8103540F208
:10D370000123C5F850364FF48473C5F81435A84B13
:10D38000C5F81835A74BC5F81C358E23C5F82435CC
:10D3900001200023C5F82C35C5F8300540F20310F4
:10D3A000C5F8340540F25B60C5F8380542F040022C
:10D3B0009D48C5F83C05C5F854259C4AC5F8081594
:10D3C000C5F804251122C5F80022C5F80C31C5F8AE
:10D3D0000031C5F8003101236B60904BD5F8002176
:10D3E0006AB30023C5F80031FFF792FD01240490D1
:10D3F000FFF78EFD049BC01A059B98420CD224B9FE
:10D40000854B0122C3F80C419A60FFF781FD049B14
:10D41000C01A059B984225D37F4B0022C3F81021E8
:10D4200001221A617D4AD3F81011002900F06781AA
:10D430000022C3F8102104E0013B8ED194E7013BA8
:10D44000CCD1019B7A4A93427FF47CAF724B00228D
:10D45000C3F80022C3F8042500F032FC029809B09A
:10D46000BDE8F08FD5F80C31002BCED00024C5F8E4
:10D470000C41D5F800A4BAF1010F12D1D5F8483506
:10D480000793FFF723FD694903904F78BB1F1F2BBC
:10D490000BD9029B674A01339BB202931368013395
:10D4A0001360FFF7DBFB0024A2E791F8008008F08F
:10D4B0000F0BBBF1060FECD85F4BC8F38018A146E9
:10D4C00002315E4A16785FFA89F4A6421CD8272EEC
:10D4D00068D8DFF8649106EBC604731C09EB84047A
:10D4E000137000212422204600F0FAFE544906223F
:10D4F000204600F021FF242303FB0699812389F8AD
:10D50000068089F8083010E0242202FB0434A27956
:10D51000424502D009F10109D3E70622204600F076
:10D52000B5FE4749444B0028F4D162890AB9039BF0
:10D530002361079B03986061013203F07F036281DE
:10D5400094F9082084F807B05B429A4259B2B8BFF8
:10D550002172062F9DD03B4E063F002106F1010BA4
:10D560004FF6AA6A4B1C9F4293DD705C002890D056
:10D570000B189F428DDB1BF801C001F1020EBCF1BC
:10D58000160F0EEB060200F1FF3300F096805BD819
:10D59000BCF1030F25D8BCF1010F00F28E800130E1
:10D5A0000144DFE7244B1C4693F92C1094F9082022
:10D5B00024330AF1010A9142B8BF1C465FFA8AF28D
:10D5C0009642F1D824220021204600F089FE1C4911
:10D5D0000622204600F0B0FE812384F806802372E4
:10D5E000A3E7ACF1080CBCF1010FD8D894F818C02F
:10D5F000BCF1000FD3D10B2BA8BF0B2304F1170EE6
:10D6000002EB0308424535D1234400221A76C6E7CF
:10D6100084EF010087EF010000100040400D03007F
:10D620002500030200D6BE8955555500C447002089
:10D6300087EF0100044800200C4800200848002023
:10D64000C6470020CC470020BCF1FF0FA7D1012B1B
:10D65000A5DD36F80EC0A4F80CC0BCF14C0F25D1E6
:10D66000022B1DD092F802C0BCF1120F0ED1022382
:10D67000A37394E712F801CBACF12009B9F15E0F66
:10D6800088BF4FF02E0C0EF801CFBBE7032B07D05D
:10D69000BCF1020F04D1D378152B01D10823E7E7A1
:10D6A000A37B002B7FF47BAF0123E1E7E36823F04A
:10D6B0007F43062B7FF473AFDAE7012B7FF76FAF61
:10D6C00036F80E30534514D00AD84FF6F142934243
:10D6D0000DD04FF65A5293427FF461AF0423C7E74F
:10D6E0004FF6ED6293427FF45AAF0323C0E7052360
:10D6F000BEE7A37B002B7FF452AF0723B8E7013AC4
:10D700007FF491AE9DE600BF014B1878704700BFD3
:10D7100008480020054B1B78834283BF044B00EB75
:10D72000C00003EB80000020704700BF08480020C5
:10D730000C480020014B1868704700BF04480020C7
:10D740002DE9F047174B02461878884228BF084653
:10D750000023D9B288420BD8134D14460023242647
:10D7600002F1010E591CCFB2B84204D8BDE8F087CF
:10D77000D1540133EDE714F8017F06FB075A12F884
:10D7800003C006FB0C5898F908909AF90880C14527
:10D7900003DA0EF803C0013BF1D213445F700B466D
:10D7A000E0E700BF084800200C4800200138C0B264
:10D7B00007289ABF024B53F820000248704700BF69
:10D7C00064EF01002AE9010008B54822044800215D
:10D7D00000F086FD034A00231370034A136008BD5E
:10D7E000DA4D0020D84D0020D44D0020FFF7ECBFCB
:10D7F0002DE9F04F814285B0CDE901120546C0F018
:10D80000AF808C4CA5F51663642B00F29B804FF023
:10D81000020B5F460123A5F160022361864BD2B261
:10D82000D4F81011002900F084800023C4F81031CE
:10D83000B91E4B424B41C4F8103540F20123C4F8E5
:10D8400050367E490023C4F81435C4F818154FF03B
:10D85000AA41C4F81C15AA21C4F824150121C4F852
:10D860003015C4F83435C4F80825754AC4F80425C1
:10D870001122C4F80022C4F80C31C4F800316E4BF8
:10D880006160D4F80021002A57D00026C4F8006156
:10D89000FFF73EFB029A022F4FF47A7881464FF051
:10D8A00001014FF07F0A14BF0423022308FB02F892
:10D8B000B8FBF3F80391FFF72BFBA0EB0900404501
:10D8C00003990AD219B90122C4F80C11A260FFF71A
:10D8D0001FFBA0EB0900404547D30022C4F81021EC
:10D8E00001222261544AD4F81011002963D0002289
:10D8F000C4F81021B6B2002E73D0524BDFF850E1BD
:10D900001878002106225FFA81F8404556D80C2885
:10D910004D496BD0424301EB020E01308D52AEF8FF
:10D9200002608EF804A08EF80570187059E0BB46AE
:10D9300070E7013B7FF474AF7AE7013BA1D1012787
:10D94000BB45F4D1019B0135ADB2AB42BFF45AAF38
:10D95000384B0022C3F80022C3F8042500F0B0F9C8
:10D96000384B187805B0BDE8F08FD4F80C21002AA8
:10D97000ADD033490022C4F80C2191F800C008460C
:10D98000012110F801EF0131E64518BF01321029DD
:10D99000F7D1022A4FF000018CDD264A2B48D2F83D
:10D9A000482502F07F02924528BF92460268013264
:10D9B000026001367EE7013A95D19BE701FB02291F
:10D9C00001F101083EF80990A9450DD11E4802FB5E
:10D9D00001025188314451801179514501D982F8B1
:10D9E00004A0FFF73BF9AAE741468CE78C460120EB
:10D9F00000224FF0060808FB021EBCF80890BEF893
:10DA000002E0F14538BFC2B201305FFA80FEBEF1DC
:10DA10000C0F0CF1060CEED1062042438818B0F82A
:10DA200002C0B4453FBF8D52468080F804A04771C4
:10DA3000D7E700BF00100040400D03002020020186
:10DA4000AC4D0020D84D0020DA4D0020D44D0020F0
:10DA5000D44D0020014B1878704700BFD84D0020EE
:10DA6000054B1B78834283BF044B00EB400003EB64
:10DA700040000020704700BFD84D0020DA4D002044
:10DA8000014B1868704700BFD44D0020054B026859
:10DA90001AB10023036001207047013BF7D11846FB
:10DAA000704700BF400D0300A0F51663642B05D836
:10DAB00000230B706038487001207047A0F63813BF
:10DAC000272B03D801230B703838F4E70020704768
:10DAD0004FF08043D3F80C2402F00112B2F1011F81
:10DAE0000AD00022C3F8002101221A60034AD3F8A9
:10DAF000001109B9013AFAD1704700BF40420F0046
:10DB00002DE9F84F3F4BDFF8149133F810305BBA32
:10DB10009BB2C9F80835002601230146C9F8006107
:10DB20003948C9F80430FFF7B1FF40B9374B01EB72
:10DB300041015A187F245C549070BDE8F88F344D31
:10DB4000344A15F80180B8F1040F38BF4FF00408CB
:10DB5000A8F104085FFA88F8344637464FF07F0B87
:10DB600092F800A0F0B282450AD90020C9F81C0141
:10DB70000120C9F814002848FFF788FF254AE8B9B2
:10DB8000264A224E0020C2F81001012010612448CC
:10DB9000FFF77CFF01EB410032187B1E7D2BC4EBAD
:10DBA000042406F800B0B4FBFAF45770947015D949
:10DBB0006B5C3B2B20D83C236B54BEE7D9F848055F
:10DBC00000F07F00834528BF8346874238BF074661
:10DBD000804524BF0134A4B20136C1E76A5CBA4271
:10DBE00001D96F54E4E76D2A06D80F2313FB0273A3
:10DBF0001B1101336B54DBE76B5C6E2B9DD96E23DD
:10DC0000DAE700BF3E4F002000110040E550002041
:10DC1000585000205D0000201C1100400010004002
:10DC200010110040024B034801221A61FFF72EBF7A
:10DC3000001000401011004040F6381398422DE9C2
:10DC4000F74338BF184640F6C413994228BF194617
:10DC5000814238BF01460A1A013292B28D2A154F0D
:10DC6000DFF85480DFF8549082BF8C328D23B2FBF2
:10DC7000F3F24FF0000304460E468CBF92B201222D
:10DC80003B70A64202D33D788C2D02D903B0BDE88B
:10DC9000F08301A92046FFF707FF38B1BDF8043033
:10DCA00028F8153029F8154001353D701444A4B208
:10DCB000E7E700BF224E00203E4F0020244E002008
:10DCC0001549164838B501240C61FFF7DFFE032320
:10DCD000C1F8FC4FC1F8103540F20123C1F85036AD
:10DCE00000220F480F4B5C257F21144601328D2AFC
:10DCF000197059709C7000F8015B03F10303F5D1B2
:10DD0000094B1B783BB9BDE8384040F6B3114FF4DE
:10DD10001660FFF791BF38BD0010004010110040A1
:10DD200058500020E5500020224E00202DE9F341FC
:10DD3000104D114FDFF8448000232B70024600EB9A
:10DD40004106B24202D02C788C2C02D902B0BDE838
:10DD5000F081108801A9FFF7A7FE40B1BDF804309B
:10DD600027F81430138828F8143001342C7002324C
:10DD7000E7E700BF224E00203E4F0020244E002047
:10DD8000802828BF8020034B012838BF012018704D
:10DD9000704700BF5D000020014B1870704700BF46
:10DDA0005C000020014B1878704700BF224E002015
:10DDB000044B1B78834286BF034B33F810000020CE
:10DDC000704700BF224E0020244E0020024B1878DE
:10DDD00008B1024B18887047224E0020244E0020C4
:10DDE000034B187818B1034B013833F81000704713
:10DDF000224E0020244E00202DE9F843204E357895
:10DE0000002D3AD0FFF764FE1E4B1C7854B9E0B2E7
:10DE10000134FFF775FEE3B29D42F8D8BDE8F84340
:10DE2000FEF71CBF184C208800F042F92080014604
:10DE3000307800F046F924883378B4FBF3F203FB22
:10DE400012440746E4B24FF0000996F800805FFAEA
:10DE500089F5A845E2D9204605F01F053C44FFF7A7
:10DE60004FFEB4FBF8F31F2D08FB1344E4B201D1BD
:10DE7000FEF7F4FE09F10109E7E7BDE8F88300BF0A
:10DE8000224E00205C0000205A0000202DE9F341C2
:10DE90000F4601A9FFF708FE7F2618B9304602B0E9
:10DEA000BDE8F081FFF714FEBDF80430174D1848A7
:10DEB0005BBA9BB2C5F8083500240123C5F80041C0
:10DEC0006B60FFF7E3FD0028E8D0DFF84C802146C7
:10DED000BC4208D00123C5F81C1140466B61FFF716
:10DEE000D5FD013448B9094B0A480022C3F8102176
:10DEF00001221A61FFF7CAFDD0E7D5F8483503F0D3
:10DF00007F039E4228BF1E46E2E700BF001000408C
:10DF100000110040101100401C1100402DE9F04F8D
:10DF20008BB00E4609A9CDE90223149FFFF7BCFD73
:10DF300020B9002420460BB0BDE8F08F039B002BD6
:10DF4000F7D0FFF7C5FDBDF82430554C55485BBAF6
:10DF50009BB2C4F8083500250123C4F80051636062
:10DF6000FFF794FD0028E4D04F494FF04008A94640
:10DF70000123C4F81C9108466361FFF787FD50B187
:10DF8000D4F8483503F07F03AB4238BF2B46B8F1D5
:10DF90000108DDB2ECD13B2D98BF5C252B1FDBB215
:10DFA0000493FEF7B5FF4FF47A7373434FF07F0984
:10DFB000002601900593B346CA460096B046344603
:10DFC000019BC11A059B994209D2354B3648002264
:10DFD000C3F81C2101225A61FFF758FD68B9304B84
:10DFE00032480022C3F8102101221A61FFF74EFDCA
:10DFF000002F4BD1FEF732FE9CE7294B0790D3F858
:10E00000481501F07F010691FEF782FF0699049BF7
:10E010008A4528BF8A468B420DD3079ABBF1000F71
:10E0200030D0894528BF8946A306C9D10690FEF79E
:10E0300015FE0698C4E7BBF1000FF5D0009BA0EBDE
:10E04000060E73440093039B9C4216D2029B029AD5
:10E0500003EBC401019B4FF6FF7CF31AE64542F83F
:10E060003430724604F1010428BF62468A8081F888
:10E070000690A4B24FF0000BD6E708F101081FFA92
:10E0800088F8F7E7894606469346CDE7009B396056
:10E090007B603C81A7F80A803D7387F80DA0A9E753
:10E0A00000100040001100401C1100401011004001
:10E0B00046F2552310FB03F000F55850193080B29A
:10E0C0007047022830B503461DD9C908421EB1FB6E
:10E0D000F2F002FB10110131C8B200251A460146C8
:10E0E000B1FBF2F402FB1414114614F0FF02F7D155
:10E0F000012909D001300135C0B2EAB2834298BF8C
:10E1000001209A42EAD3012030BD00000D490B786E
:10E11000B3B10D4B0022C3F8102101221A610B4A42
:10E12000D3F8100148B10022C3F81021064A002399
:10E13000C2F80C350B70FFF7C3BD013AF0D1F5E71B
:10E14000704700BF9052002000100040400D0300B7
:10E1500038B5A0F51665ABB2642B0C4634D803294C
:10E1600032D8FFF7D3FF4FF08043D3F80C2412F4DA
:10E17000803209D1C3F8002101221A60134AD3F872
:10E18000001109B9013AFAD1114B00220321C3F859
:10E190000022C3F810150F49C3F80855095DC3F8EC
:10E1A0000C15C3F8002101221A600B4AD3F80011A4
:10E1B00041B10022C3F80021084B01201870084B20
:10E1C0001A6038BD013AF1D10020FAE740420F0051
:10E1D000001000409CEF0100400D03009052002011
:10E1E0008C520020014B1878704700BF90520020DD
:10E1F00010B5094B1B781BB1084C23680BB9206084
:10E2000010BDC01A47F22F539842F9D9FFF77EFF8D
:10E2100000232360F4E700BF905200208C520020BE
:10E22000094B0246187868B1084B186850B1111AAA
:10E2300047F22F53994204D800F5EA433033981A35
:10E2400070470020704700BF905200208C52002081
:10E2500003289ABF024B53F820000248704700BFC2
:10E260008CEF01006EE6010008B5064B044613B1C1
:10E270000021AFF30080044B1B6803B19847204690
:10E2800000F068F8000000009452002010B5013939
:10E290000244904201D1002005E0037811F8014FBB
:10E2A000A34201D0181B10BD0130F2E7884210B51F
:10E2B00001EB020402D98442234607D8431EA1423F
:10E2C00008D011F8012B03F8012FF8E702440146AA
:10E2D0008A4200D110BD13F8014D02F8014DF7E755
:10E2E00002440346934200D1704703F8011BF9E74B
:10E2F00070B50D4D0D4C641BA4100026A64209D12B
:10E300000B4D0C4C00F0A0F9641BA4100026A64293
:10E3100005D170BD55F8043B98470136EEE755F836
:10E32000043B98470136F2E76000002060000020BF
:10E3300060000020640000200A44914200F1FF3395
:10E3400000D1704710B511F8014B03F8014F91420D
:10E35000F9D110BDFEE700BF53B94AB9002908BF83
:10E3600000281CBF4FF0FF314FF0FF3000F06AB9BA
:10E37000ADF1080C6DE904CE00F006F8DDF804E01C
:10E38000DDE9022304B070472DE9F047089D0E46F1
:10E3900004460F46002B4AD194468C45B2FA82F2CD
:10E3A00060D942B1C2F12003974020FA03F30CFA7E
:10E3B00002FC1F4394404FEA1C4E1FFA8CF6B7FB39
:10E3C000FEF1230C0EFB117743EA074301FB06F035
:10E3D00098420AD91CEB030301F1FF3780F0158145
:10E3E000984240F21281023963441B1AA4B2B3FB73
:10E3F000FEF00EFB103344EA034400FB06F6A6428F
:10E400000AD91CEB040400F1FF3380F00081A6421E
:10E4100040F2FD806444023840EA0140A41B002120
:10E420001DB1D4400023C5E90043BDE8F0878B420D
:10E4300005D90DB1C5E9000100210846F5E7B3FA99
:10E4400083F1002946D1B34202D3824200F2F58023
:10E45000841A66EB030201201746002DE5D0C5E9BA
:10E460000047E2E7002A40F09380A1EB0C034FEA5B
:10E470001C471FFA8CFE0121B3FBF7F607FB163091
:10E48000230C43EA00430EFB06F0984208D91CEB2C
:10E49000030306F1FF3802D2984200F2D0804646CC
:10E4A0001B1AA4B2B3FBF7F007FB103344EA034492
:10E4B0000EFB00FEA64508D91CEB040400F1FF3357
:10E4C00002D2A64500F2B6801846A4EB0E0440EA3C
:10E4D0000640A5E7C1F120078B4022FA07FC4CEA71
:10E4E000030C06FA01FE20FA07F426FA07F344EAC1
:10E4F0000E0400FA01F84FEA1C404FEA1449B3FB3E
:10E50000F0FE1FFA8CF600FB1E3349EA03430EFBB4
:10E5100006F9994502FA01F20BD91CEB03030EF13F
:10E52000FF3A80F08580994540F28280AEF1020E7C
:10E530006344A3EB0909A4B2B9FBF0F300FB139900
:10E5400044EA094403FB06F6A64208D91CEB04047E
:10E5500003F1FF3068D2A64266D9023B644443EA25
:10E560000E40A41BA0FB02E6B4427346B14652D350
:10E570004FD05DB1B8EB030264EB090404FA07F76E
:10E5800022FA01F31F43CC40C5E9007400214CE797
:10E59000C2F1200120FA01F30CFA02FC26FA01F183
:10E5A000964033434FEA1C471FFA8CFEB1FBF7F04D
:10E5B00007FB1016190C41EA064100FB0EF68E42CD
:10E5C00004FA02F408D91CEB010100F1FF382DD246
:10E5D0008E422BD902386144891B9BB2B1FBF7F6FE
:10E5E00007FB161143EA014306FB0EF1994208D9D5
:10E5F0001CEB030306F1FF3814D2994212D9023EF4
:10E6000063445B1A46EA004136E73946EDE61846B0
:10E6100002E7F045ADD2BEEB020366EB0C06013813
:10E62000B146A6E74646ECE7034698E74046D3E7FF
:10E63000D6467EE76444023847E708460DE7023EC7
:10E6400063442DE7704700BFF8B500BFF8BC08BCB5
:10E650009E467047F8B500BFF8BC08BC9E467047A0
:10E66000474F4F44425945004F4646002D003F005A
:10E670005348414445530031424954004155544F99
:10E68000004649584544005345543A2045444954AE
:10E690000053455454494E475300424F4F544C4F3A
:10E6A00041444552004B45455020484F4C44494E4B
:10E6B0004720544F20454E5445522044465500545F
:10E6C00058204641494C45440054582053544F501B
:10E6D000504544004E4F20494E5055540049534D2B
:10E6E0000046554C4C0045585400424C4541445658
:10E6F000004261636B00436F6E7472617374004219
:10E7000061636B6C696768740042616E6400447792
:10E71000656C6C0057462073706565640057462031
:10E720006D6F6465004175746F20666C6F6F720069
:10E7300053687566666C65004C45442068756E7458
:10E740000044696D207300536C656570206D004254
:10E750006174742063616C004964656E74696679E4
:10E7600000424C45207363616E004D6F7573652FD9
:10E770004B62640042757369657374004D6574651E
:10E7800072004F7665726C617900467265657A65D4
:10E79000005365742072656600436C656172206D7C
:10E7A00061780053657474696E677300536C6565B6
:10E7B00070005458207465737400496E666F00577A
:10E7C00049464900424C45003830322E31352E340E
:10E7D00000554E4B4E4F574E00434F4E54494E55E9
:10E7E0004F555300574946492D4C494B4500574911
:10E7F000464920424541434F4E004D4943524F57F1
:10E8000041564500424C4520414456004E4152522B
:10E810004F5720425552535400484F5050494E478D
:10E8200000322E3447487A00535045435452554DD8
:10E8300000414E414C595A455200524553455400EF
:10E84000424154540041444300534C454550204FED
:10E850004E4C592046524F4D20544845204D454E70
:10E86000550042415454455259204C4F570043489B
:10E87000415247452049542C205354494C4C205276
:10E88000554E4E494E470046524F5A454E00494E4E
:10E89000464F00555054494D450053574545505338
:10E8A00000484953544F525900524F575300424168
:10E8B000545445525900504354004144432052415E
:10E8C0005700464C415348004B42004E4F4E4500C6
:10E8D0004154433134343100425553494553540077
:10E8E00042414E4420495320515549455400424528
:10E8F0005354205749464920434800465245450055
:10E900004D487A004E4F205258004944454E5449D4
:10E910004659004C495354454E494E4700424C45D8
:10E9200020284445434F4445442900435243204353
:10E930004845434B45442C204E4F542041204755D9
:10E94000455353005041545445524E204D41544379
:10E95000482C204E4F54204445434F4445440043E7
:10E960004F4E464944454E4345005749445448009C
:10E970004D485A0044555459004D53005045524992
:10E980004F4400425552535453005041434B455459
:10E99000530044455600504B54004C495354454E87
:10E9A000494E472E2E2E0052414E444F4D20414499
:10E9B0004452005055424C49432041444452004483
:10E9C000455649434500525353490044424D005374
:10E9D00045454E20464F5200434F4D50414E590041
:10E9E0004D4F5553452F4B42440048495453004E18
:10E9F0004F2053484F434B42555253542054524199
:10EA00004646494320594554004D4F5645205448E9
:10EA100045204D4F555345204F52205459504500E5
:10EA20005748494C4520544845205343414E2052B5
:10EA3000554E5300505245414D424C45204C4F439A
:10EA40004B2C204E4F54204445434F4445440054E2
:10EA5000582054455354005452414E534D49545339
:10EA6000204120434152524945522E0043484543DC
:10EA70004B20594F5552204C4F43414C2052554C3E
:10EA80004553004245464F524520454E41424C4970
:10EA90004E472049542E00465245510050575200CF
:10EAA0004D494420484F4C4420315320544F20536B
:10EAB0005441525400545820414354495645005340
:10EAC000544F505320494E00414E59204255545402
:10EAD0004F4E2053544F5053204E4F57004D4152EC
